:020000040000FA
:04000000E2EF07F034
:10060000003F065B4F666D7D077F6F777C395E79B3
:10061000714573636F6C68612061206D75736963E8
:100620006100506C61796572004D5033000002BE6C
:1006300025EF03F0025007E1080E015CD8B023EF6C
:1006400003F025EF03F04FEF03F003500410D8B48C
:100650002CEF03F02EEF03F03EEF03F001C005F0A6
:10066000010E066E052A37EF03F0D8900636052EE8
:1006700035EF03F0065092123DEF04F001C005F093
:10068000010E066E052A47EF03F0D8900636052EB8
:1006900045EF03F00650FF0A92163DEF04F002BE4C
:1006A0005DEF03F0025007E1100E015CD8B05BEF84
:1006B00003F05DEF03F08BEF03F003500410D8B4A8
:1006C00064EF03F066EF03F078EF03F001C005F08C
:1006D000F80E0526010E066E052A71EF03F0D8907C
:1006E0000636052E6FEF03F0065093123DEF04F02F
:1006F00001C005F0F80E0526010E066E052A83EFEF
:1007000003F0D8900636052E81EF03F00650FF0A5D
:1007100093163DEF04F002BE99EF03F0025007E19B
:10072000180E015CD8B097EF03F099EF03F0C7EF14
:1007300003F003500410D8B4A0EF03F0A2EF03F0CD
:10074000B4EF03F001C005F0F00E0526010E066EB1
:10075000052AADEF03F0D8900636052EABEF03F077
:10076000065094123DEF04F001C005F0F00E05268E
:10077000010E066E052ABFEF03F0D8900636052E4F
:10078000BDEF03F00650FF0A94163DEF04F002BEE1
:10079000D5EF03F0025007E1200E015CD8B0D3EF93
:1007A00003F0D5EF03F003EF04F003500410D8B4C6
:1007B000DCEF03F0DEEF03F0F0EF03F001C005F033
:1007C000E80E0526010E066E052AE9EF03F0D89023
:1007D0000636052EE7EF03F0065095123DEF04F0C4
:1007E00001C005F0E80E0526010E066E052AFBEF96
:1007F00003F0D8900636052EF9EF03F00650FF0AF5
:1008000095163DEF04F002BE11EF04F0025007E12F
:10081000280E015CD8B00FEF04F011EF04F03DEFAB
:1008200004F003500410D8B418EF04F01AEF04F0E9
:100830002CEF04F001C005F0E00E0526010E066E57
:10084000052A25EF04F0D8900636052E23EF04F094
:10085000065096123DEF04F001C005F0E00E0526AB
:10086000010E066E052A37EF04F0D8900636052EE5
:1008700035EF04F00650FF0A9616120002BE4CEF48
:1008800004F0025007E1080E015CD8B04AEF04F012
:100890004CEF04F076EF04F003500410D8B453EF9B
:1008A00004F055EF04F065EF04F001C005F0010E0F
:1008B000066E052A5EEF04F0D8900636052E5CEF32
:1008C00004F00650801264EF05F001C005F0010E3F
:1008D000066E052A6EEF04F0D8900636052E6CEFF2
:1008E00004F00650FF0A801664EF05F002BE84EFA4
:1008F00004F0025007E1100E015CD8B082EF04F062
:1009000084EF04F0B2EF04F0F80E0126FF0E02228D
:1009100003500410D8B48FEF04F091EF04F0A1EF6E
:1009200004F001C005F0010E066E052A9AEF04F0EE
:10093000D8900636052E98EF04F00650811264EF29
:1009400005F001C005F0010E066E052AAAEF04F0BD
:10095000D8900636052EA8EF04F00650FF0A81163F
:1009600064EF05F002BEC0EF04F0025007E1180E7C
:10097000015CD8B0BEEF04F0C0EF04F0EEEF04F07D
:10098000F00E0126FF0E022203500410D8B4CBEF64
:1009900004F0CDEF04F0DDEF04F001C005F0010E2E
:1009A000066E052AD6EF04F0D8900636052ED4EF51
:1009B00004F00650821264EF05F001C005F0010E4C
:1009C000066E052AE6EF04F0D8900636052EE4EF11
:1009D00004F00650FF0A821664EF05F002BEFCEF39
:1009E00004F0025007E1200E015CD8B0FAEF04F0E9
:1009F000FCEF04F02AEF05F0E80E0126FF0E0222BC
:100A000003500410D8B407EF05F009EF05F019EF13
:100A100005F001C005F0010E066E052A12EF05F083
:100A2000D8900636052E10EF05F00650831264EFBD
:100A300005F001C005F0010E066E052A22EF05F053
:100A4000D8900636052E20EF05F00650FF0A8316D3
:100A500064EF05F002BE38EF05F0025007E1280E02
:100A6000015CD8B036EF05F038EF05F064EF05F023
:100A7000E00E0126FF0E022203500410D8B443EF0B
:100A800005F045EF05F055EF05F001C005F0010E4A
:100A9000066E052A4EEF05F0D8900636052E4CEF6F
:100AA00005F00650841264EF05F001C005F0010E58
:100AB000066E052A5EEF05F0D8900636052E5CEF2F
:100AC00005F00650FF0A8416120083CF06F00F0EC1
:100AD0009512000E0A6EF80E93160AC001F0010E70
:100AE000026E012A76EF05F0D8900236012E74EFDF
:100AF00005F002509312070E81120AC001F0010E98
:100B0000026E012A86EF05F0D8900236012E84EF9E
:100B100005F00250FF0A8116000E086E000E076EE7
:100B2000074A082A08BE9EEF05F0085009E10A0EA0
:100B3000075CD8A09EEF05F0A0EF05F090EF05F060
:100B4000000E096E09C001F0010E026E012AABEF22
:100B500005F0D8900236012EA9EF05F0025083145B
:100B60000009D8A4B6EF05F0B8EF05F0D0EF05F016
:100B70000A50040DF3500924016E010E026E000E9E
:100B8000036E012AC7EF05F0D89002360336012E16
:100B9000C4EF05F00250301203503112EAEF05F0B5
:100BA0000A50040DF3500924016E010E026E000E6E
:100BB000036E012ADFEF05F0D89002360336012ECE
:100BC000DCEF05F0021C046E031C056E04503016A9
:100BD00005503116092A030E0964F1EF05F0F3EF11
:100BE00005F0A2EF05F00A2A020E0A64FAEF05F0FA
:100BF000FCEF05F06BEF05F030502E1807E1315097
:100C00002F18D8A406EF06F008EF06F00BEF06F059
:100C1000390611EF06F00A0E396E30C02EF031C0E1
:100C20002FF03950D8A417EF06F019EF06F01DEF9A
:100C300006F02EC032F02FC033F006C083FF000E46
:100C4000956E1200000E2C6E000E2D6E000E0E6EB4
:100C5000000E0F6E000E106E000E116E000E126E62
:100C6000000E136E000E146E000E156E000E166E42
:100C7000000E176E000E186E000E196E000E1A6E22
:100C8000000E1B6E000E1C6E000E1D6E000E1E6E02
:100C9000000E1F6E000E206E000E216E000E226EE2
:100CA000000E236E000E246E000E256E000E266EC2
:100CB000000E276E000E286E000E296EDBEC06F08B
:100CC000F2EC07F00F0E9CEC06F0060E096E000E1B
:100CD00049EC07F0290E096E060E0A6EA0EC07F02B
:100CE000060E096E010E49EC07F0220E096E060E83
:100CF0000A6EA0EC07F0070E026ED00E016E17EC24
:100D000007F0010E9CEC06F0000E096E000E49EC97
:100D100007F0110E096E060E0A6EA0EC07F0000E29
:100D2000096E000E49EC07F065EC05F0EDEC07F0FC
:100D300089EF06F000EF00F0086E83CF07F0000E99
:100D4000956E000E026E220E016E000E046E000EF5
:100D5000036E3EEC04F008C083FF000E026E210E0D
:100D6000016E000E046E010E036E3EEC04F0000EE8
:100D7000026E210E016E000E046E000E036E3EEC3C
:100D800004F007C083FF020E0818D8B4CAEF06F0BB
:100D9000CCEF06F0D4EF06F00804D8A4D2EF06F0AA
:100DA000D4EF06F0D8EF06F0C8EC07F0DAEF06F063
:100DB000D6EC07F01200000E026E220E016E000E3D
:100DC000046E000E036E17EC03F0000E026E210E8F
:100DD000016E000E046E000E036E17EC03F0000EA1
:100DE000956EC8EC07F0C8EC07F0C8EC07F0C8EC4B
:100DF00007F0C8EC07F0380E9CEC06F0C8EC07F0E2
:100E0000C8EC07F0380E9CEC06F0C8EC07F0380E82
:100E10009CEC06F0380E9CEC06F0060E9CEC06F0FE
:100E20000C0E9CEC06F0010E9CEC06F01200000E7D
:100E3000046E000E036E3DEF07F0000E056E280EE7
:100E4000056425EF07F027EF07F029EF07F03BEFE8
:100E500007F0000E066E020E066431EF07F033EF66
:100E600007F035EF07F038EF07F0062A2BEF07F011
:100E7000052A1FEF07F0034A042A0150035C0250C1
:100E80000458D8A046EF07F048EF07F01DEF07F031
:100E900012000A6E000E0B6E0A50D8A452EF07F033
:100EA00054EF07F057EF07F00950800F0B6E0A045C
:100EB000D8A45DEF07F05FEF07F06AEF07F00B04CF
:100EC000D8B465EF07F067EF07F06AEF07F0095055
:100ED000C00F0B6E0F0E096470EF07F072EF07F092
:100EE00072EF07F00B509CEC06F01200076E83CFF8
:100EF00008F0000E956E000E026E220E016E000EBE
:100F0000046E010E036E3EEC04F007C083FF000E7A
:100F1000026E210E016E000E046E010E036E3EEC99
:100F200004F0000E026E210E016E000E046E000E23
:100F3000036E3EEC04F008C083FFD6EC07F012000D
:100F4000000E0D6EB3EF07F00D5009240B6E000E6E
:100F50000A200C6E0BC0F6FF0CC0F7FF0800F5501E
:100F600076EC07F00D2A0D5009240B6E000E0A20B6
:100F70000C6E0BC0F6FF0CC0F7FF0800F55000091F
:100F8000D8A4C5EF07F0C7EF07F0A4EF07F01200F1
:100F9000000E026ED6EC07F0022A310E0264D3EF87
:100FA00007F0D5EF07F0CAEF07F01200000E016E50
:100FB000012A180E0164DFEF07F0E1EF07F0D8EF28
:100FC00007F0120000EE2EF00C0EEE6AE806FDE1CE
:100FD000000EF86E000122EF06F032C001F033C0BF
:0E0FE00002F01200070E93160F0E951212006B
:020000040020DA
:08000000FFFFFFFFFFFFFFFF00
:020000040030CA
:0E000000FF027100FF8380FF0FC00FE00F4072
:00000001FF
