:020000040000FA
:040000003FEF09F0D5
:10060000003F065B4F666D7D077F6F777C395E79B3
:10061000713C2D28312920282A2920202832292DF3
:100620003E004573636F6C68612061206D7573696E
:0F063000636100506C61796572004D50330000BA
:100640002FBE2EEF03F02F5007E1080E2E5CD8B01E
:100650002CEF03F02EEF03F058EF03F03050311081
:10066000D8B435EF03F037EF03F047EF03F02EC0B7
:1006700032F0010E336E322A40EF03F0D890333659
:10068000322E3EEF03F03350921246EF04F02EC0AC
:1006900032F0010E336E322A50EF03F0D890333629
:1006A000322E4EEF03F03350FF0A921646EF04F05D
:1006B0002FBE66EF03F02F5007E1100E2E5CD8B06E
:1006C00064EF03F066EF03F094EF03F03050311065
:1006D000D8B46DEF03F06FEF03F081EF03F02EC09D
:1006E00032F0F80E3226010E336E322A7AEF03F022
:1006F000D8903336322E78EF03F03350931246EF12
:1007000004F02EC032F0F80E3226010E336E322A7B
:100710008CEF03F0D8903336322E8AEF03F033504B
:10072000FF0A931646EF04F02FBEA2EF03F02F50FE
:1007300007E1180E2E5CD8B0A0EF03F0A2EF03F093
:10074000D0EF03F030503110D8B4A9EF03F0ABEF85
:1007500003F0BDEF03F02EC032F0F00E3226010E92
:10076000336E322AB6EF03F0D8903336322EB4EF20
:1007700003F03350941246EF04F02EC032F0F00E26
:100780003226010E336E322AC8EF03F0D89033368A
:10079000322EC6EF03F03350FF0A941646EF04F0F2
:1007A0002FBEDEEF03F02F5007E1200E2E5CD8B0F5
:1007B000DCEF03F0DEEF03F00CEF04F0305031100B
:1007C000D8B4E5EF03F0E7EF03F0F9EF03F02EC044
:1007D00032F0E80E3226010E336E322AF2EF03F0C9
:1007E000D8903336322EF0EF03F03350951246EFA7
:1007F00004F02EC032F0E80E3226010E336E322A9B
:1008000004EF04F0D8903336322E02EF04F0335068
:10081000FF0A951646EF04F02FBE1AEF04F02F5092
:1008200007E1280E2E5CD8B018EF04F01AEF04F0A0
:1008300046EF04F030503110D8B421EF04F023EF2C
:1008400004F035EF04F02EC032F0E00E3226010E37
:10085000336E322A2EEF04F0D8903336322E2CEF3E
:1008600004F03350961246EF04F02EC032F0E00E42
:100870003226010E336E322A40EF04F0D890333620
:10088000322E3EEF04F03350FF0A961612002FBEB0
:1008900055EF04F02F5007E1080E2E5CD8B053EF4F
:1008A00004F055EF04F07FEF04F030503110D8B46D
:1008B0005CEF04F05EEF04F06EEF04F02EC032F057
:1008C000010E336E322A67EF04F0D8903336322EA1
:1008D00065EF04F0335080126DEF05F02EC032F05A
:1008E000010E336E322A77EF04F0D8903336322E71
:1008F00075EF04F03350FF0A80166DEF05F02FBE40
:100900008DEF04F02F5007E1100E2E5CD8B08BEF66
:1009100004F08DEF04F0BBEF04F0F80E2E26FF0E6E
:100920002F2230503110D8B498EF04F09AEF04F031
:10093000AAEF04F02EC032F0010E336E322AA3EF7C
:1009400004F0D8903336322EA1EF04F033508112E8
:100950006DEF05F02EC032F0010E336E322AB3EF88
:1009600004F0D8903336322EB1EF04F03350FF0A42
:1009700081166DEF05F02FBEC9EF04F02F5007E18F
:10098000180E2E5CD8B0C7EF04F0C9EF04F0F7EFF3
:1009900004F0F00E2E26FF0E2F2230503110D8B466
:1009A000D4EF04F0D6EF04F0E6EF04F02EC032F0FE
:1009B000010E336E322ADFEF04F0D8903336322E38
:1009C000DDEF04F0335082126DEF05F02EC032F0EF
:1009D000010E336E322AEFEF04F0D8903336322E08
:1009E000EDEF04F03350FF0A82166DEF05F02FBED5
:1009F00005EF05F02F5007E1200E2E5CD8B003EF75
:100A000005F005EF05F033EF05F0E80E2E26FF0E9A
:100A10002F2230503110D8B410EF05F012EF05F04E
:100A200022EF05F02EC032F0010E336E322A1BEF9A
:100A300005F0D8903336322E19EF05F0335083127B
:100A40006DEF05F02EC032F0010E336E322A2BEF1F
:100A500005F0D8903336322E29EF05F03350FF0AD7
:100A600083166DEF05F02FBE41EF05F02F5007E123
:100A7000280E2E5CD8B03FEF05F041EF05F06DEF8A
:100A800005F0E00E2E26FF0E2F2230503110D8B484
:100A90004CEF05F04EEF05F05EEF05F02EC032F0A2
:100AA000010E336E322A57EF05F0D8903336322ECE
:100AB00055EF05F0335084126DEF05F02EC032F083
:100AC000010E336E322A67EF05F0D8903336322E9E
:100AD00065EF05F03350FF0A8416120083CF33F020
:100AE0000F0E9512000E376EF80E931637C02EF0CB
:100AF000010E2F6E2E2A7FEF05F0D8902F362E2E66
:100B00007DEF05F02F509312070E811237C02EF0A3
:100B1000010E2F6E2E2A8FEF05F0D8902F362E2E35
:100B20008DEF05F02F50FF0A8116000E356E000E76
:100B3000346E344A352A35BEA7EF05F0355009E149
:100B40000A0E345CD8A0A7EF05F0A9EF05F099EFE5
:100B500005F0000E366E36C02EF0010E2F6E2E2AD6
:100B6000B4EF05F0D8902F362E2EB2EF05F02F50AF
:100B700083140009D8A4BFEF05F0C1EF05F0D9EF49
:100B800005F03750040DF35036242E6E010E2F6EF3
:100B9000000E306E2E2AD0EF05F0D8902F3630366A
:100BA0002E2ECDEF05F02F50201230502112F3EFF2
:100BB00005F03750040DF35036242E6E010E2F6EC3
:100BC000000E306E2E2AE8EF05F0D8902F36303622
:100BD0002E2EE5EF05F02F1C316E301C326E315099
:100BE000201632502116362A030E3664FAEF05F02D
:100BF000FCEF05F0ABEF05F0372A020E376403EF88
:100C000006F005EF06F074EF05F020501E1807E11E
:100C100021501F18D8A40FEF06F011EF06F014EFC3
:100C200006F02C061AEF06F00A0E2C6E20C01EF0FD
:100C300021C01FF02C50D8A420EF06F022EF06F0C0
:100C400026EF06F01EC022F01FC023F033C083FF42
:100C5000000E956E1200000E956E000E2F6E020EA5
:100C60002E6E000E316E000E306E47EC04F0000E5A
:100C70002F6E030E2E6E000E316E000E306E47EC9E
:100C800004F0000E2F6E040E2E6E000E316E000E5C
:100C9000306E47EC04F0000E2F6E050E2E6E000E27
:100CA000316E000E306E47EC04F0000E836EADEF37
:100CB00006F0010E2A24F66EF76A060EF7220800E7
:100CC000F5CF83FF000E2F6E020E2E6E000E316EDA
:100CD000010E306E47EC04F0CAEF06F0010E292435
:100CE000F66EF76A060EF7220800F5CF83FF000EB6
:100CF0002F6E030E2E6E000E316E010E306E47EC1D
:100D000004F0CAEF06F0010E2824F66EF76A060E0C
:100D1000F7220800F5CF83FF000E2F6E040E2E6E13
:100D2000000E316E010E306E47EC04F0CAEF06F093
:100D3000010E2724F66EF76A060EF7220800F5CF9B
:100D400083FF000E2F6E050E2E6E000E316E010E0B
:100D5000306E47EC04F0CAEF06F02B50346E356A63
:100D60003550000AD8B4B7EF06F0CAEF06F0345099
:100D7000000AD8B459EF06F0010AD8B46EEF06F0B5
:100D8000030AD8B483EF06F0010AD8B498EF06F04E
:100D9000CAEF06F012006EEC05F080EC0AF02E505F
:100DA0001D6E1DB6D6EF06F0D8EF06F0DFEF06F0A9
:100DB0001DAEDDEF06F0DFEF06F069EF07F0010E84
:100DC000246E2BEC06F06EEC05F0000E2F6E0A0E72
:100DD0002E6E0DEC09F01D503B6E3C6A80EC0AF063
:100DE0003B502E1807E13C502F18D8A4FAEF06F01C
:100DF000FCEF06F004EF07F02404D8A402EF07F09C
:100E000004EF07F0E1EF06F080EC0AF02E501D6EC3
:100E10001DA60DEF07F00FEF07F01EEF07F02650AD
:100E2000D8A415EF07F017EF07F01BEF07F0090E36
:100E3000266E3EEF07F026063EEF07F01DAE23EFCD
:100E400007F025EF07F035EF07F0090E2618D8A4B4
:100E50002CEF07F02EEF07F032EF07F0000E266EB2
:100E60003EEF07F0262A3EEF07F01DA03AEF07F00D
:100E70003CEF07F03EEF07F064EF07F0010E56EC91
:100E800008F0000E366E010E9EEC09F0110E366E63
:100E9000060E376ED1EC08F0000E366E000E9EEC9A
:100EA00009F02650130D020EF324366E010EF420C5
:100EB000376ED1EC08F0030E2E6E265070EC09F060
:100EC000000E246EE1EF06F0000E366E000E9EEC72
:100ED00009F01200457374616D6F73205669766F67
:100EE00073000000004368656961206465204D61FE
:100EF0006E69617300004520546172646520446529
:100F00006D616973000000536F7A696E686F00004D
:100F10000000000000000000436967616E6100008E
:100F20000000000000000000004369756D6573203B
:100F3000646520566F6365000000457874726170C7
:100F40006F6C656900000000000000446575732047
:100F50006D65204C69767265000000004D6172611C
:100F600076696C686100000000000000004D656457
:100F70006964612045786174610000000000000E22
:100F80003D6E000E3C6ED8903C34D96E3D34DA6E26
:100F9000010ED926000EDA223CC02EF03DC02FF003
:100FA000000E316E130E306E3FEC0AF0000E2E2450
:100FB000E16E010E2F20E26EDECFE6FFDDCFE5FF12
:100FC0003CC02EF03DC02FF0000E316E130E306E7F
:100FD0003FEC0AF0020E2E24346E010E2F20356EE7
:100FE0003CC02EF03DC02FF0000E316E110E306E61
:100FF0003FEC0AF0000E2E24366E020E2F20376EC4
:1010000020EC0AF03C4A3D2A3D5009E10A0E3C5CC6
:10101000D8A00DEF08F00FEF08F0C3EF07F01200B3
:10102000BFEC07F095EC08F0CBEC09F07BEC0AF094
:101030000F0E56EC08F0060E366E000E9EEC09F010
:101040003A0E366E060E376ED1EC08F0060E366E8E
:10105000010E9EEC09F0330E366E060E376ED1ECA3
:1010600008F0070E2F6ED00E2E6E0DEC09F0010E5B
:1010700056EC08F0000E366E000E9EEC09F0220EC3
:10108000366E060E376ED1EC08F0000E366E010E8D
:101090009EEC09F0110E366E060E376ED1EC08F09C
:1010A000CBEC06F045EF08F000EF00F0356E83CF93
:1010B00034F0000E956E000E2F6E220E2E6E000E76
:1010C000316E000E306E47EC04F035C083FF000E29
:1010D0002F6E210E2E6E000E316E010E306E47EC1B
:1010E00004F0000E2F6E210E2E6E000E316E000EDB
:1010F000306E47EC04F034C083FF020E3518D8B4CC
:1011000084EF08F086EF08F08EEF08F03504D8A4DD
:101110008CEF08F08EEF08F092EF08F061EC0AF027
:1011200094EF08F06FEC0AF01200000E2F6E220E02
:101130002E6E000E316E000E306E20EC03F0000EAD
:101140002F6E210E2E6E000E316E000E306E20ECD2
:1011500003F0000E956E61EC0AF061EC0AF061ECB0
:101160000AF061EC0AF061EC0AF0380E56EC08F077
:1011700061EC0AF061EC0AF0380E56EC08F061EC14
:101180000AF0380E56EC08F0380E56EC08F0060E51
:1011900056EC08F00C0E56EC08F0010E56EC08F078
:1011A0001200000E3A6EEEEF08F03A503624386E18
:1011B000000E3720396E38C0F6FF39C0F7FFF86AE5
:1011C000050EF76403D00800F55005D0F6CFE9FF0F
:1011D000F7CFEAFFEF50F6EC09F03A2A3A503624FE
:1011E000386E000E3720396E38C0F6FF39C0F7FF71
:1011F000F86A050EF76403D00800F55005D0F6CF65
:10120000E9FFF7CFEAFFEF500009D8A40AEF09F091
:101210000CEF09F0D5EF08F01200000E316E000E51
:10122000306E33EF09F0000E326E280E32641BEF81
:1012300009F01DEF09F01FEF09F031EF09F0000E82
:10124000336E020E336427EF09F029EF09F02BEF1C
:1012500009F02EEF09F0332A21EF09F0322A15EFB9
:1012600009F0304A312A2E50305C2F503158D8A026
:101270003CEF09F03EEF09F013EF09F01200D40E35
:10128000F66E0E0EF76E000EF86E02EE00F010EE27
:10129000AAF00900F5CFEEFFE550E150FAE1A40E07
:1012A000F66E140EF76E000EF86E00EE01F010EE02
:1012B0001DF00900F5CFEEFFE550E150FAE101EE37
:1012C00000F0BE0EEE6AE806FDE100EE1EF0100E24
:1012D000EE6AE806FDE1000EF86E000110EF08F07E
:1012E0002F6E2EC02BF02E50D8A479EF09F07BEF93
:1012F00009F07DEF09F02FC02AF02E04D8A483EF67
:1013000009F085EF09F087EF09F02FC029F0020EF0
:101310002E18D8A48EEF09F090EF09F092EF09F0A3
:101320002FC028F0030E2E18D8A499EF09F09BEFD8
:1013300009F09DEF09F02FC027F01200376E000E64
:10134000386E3750D8A4A7EF09F0A9EF09F0ACEF39
:1013500009F03650800F386E3704D8A4B2EF09F088
:10136000B4EF09F0BFEF09F03804D8B4BAEF09F0D0
:10137000BCEF09F0BFEF09F03650C00F386E0F0E0A
:101380003664C5EF09F0C7EF09F0C7EF09F0385030
:1013900056EC08F01200000E2F6E020E2E6E000E9C
:1013A000316E000E306E20EC03F0000E2F6E030E37
:1013B0002E6E000E316E000E306E20EC03F0000E2B
:1013C0002F6E040E2E6E000E316E000E306E20EC6D
:1013D00003F0000E2F6E050E2E6E000E316E000E05
:1013E000306E20EC03F0000E956E1200346E83CF49
:1013F00035F0000E956E000E2F6E220E2E6E000E32
:10140000316E010E306E47EC04F034C083FF000EE5
:101410002F6E210E2E6E000E316E010E306E47ECD7
:1014200004F0000E2F6E210E2E6E000E316E000E97
:10143000306E47EC04F035C083FF6FEC0AF0120009
:1014400036C038F037C039F034C03AF035C03BF020
:1014500038C0D9FF39C0DAFF384A392A3AC0E1FF2B
:101460003BC0E2FF3A4A3B2ADFCFE7FFE750D8A470
:101470003CEF0AF03EEF0AF028EF0AF012002E507F
:101480003002F3CF32F0F4CF33F02E503102F3506C
:1014900033262F503002F350332632C02EF033C0A3
:1014A0002FF01200B400B400B400B400B400B400D3
:1014B000B400B400B400B4000A0704010008050237
:0114C000101B
:1014C200000E2F6E6FEC0AF02F2A310E2F646CEF94
:1014D2000AF06EEF0AF063EF0AF01200000E2E6EB1
:1014E2002E2A180E2E6478EF0AF07AEF0AF071EFC6
:1014F2000AF01200070E93160F0E9512120022C068
:081502002EF023C02FF01200AF
:020000040020DA
:08000000FFFFFFFFFFFFFFFF00
:020000040030CA
:0E000000FF027100FF8380FF0FC00FE00F4072
:00000001FF
