:020000040000FA
:040000007DEF08F098
:10060000003F065B4F666D7D077F6F777C395E79B3
:10061000713C2D28312920282A2920202832292DF3
:100620003E004573636F6C68612061206D7573696E
:0F063000636100506C61796572004D50330000BA
:1006400017BE2EEF03F0175007E1080E165CD8B066
:100650002CEF03F02EEF03F058EF03F018501910B1
:10066000D8B435EF03F037EF03F047EF03F016C0CF
:100670001AF0010E1B6E1A2A40EF03F0D8901B36B9
:100680001A2E3EEF03F01B50921246EF04F016C0F4
:100690001AF0010E1B6E1A2A50EF03F0D8901B3689
:1006A0001A2E4EEF03F01B50FF0A921646EF04F08D
:1006B00017BE66EF03F0175007E1100E165CD8B0B6
:1006C00064EF03F066EF03F094EF03F01850191095
:1006D000D8B46DEF03F06FEF03F081EF03F016C0B5
:1006E0001AF0F80E1A26010E1B6E1A2A7AEF03F082
:1006F000D8901B361A2E78EF03F01B50931246EF5A
:1007000004F016C01AF0F80E1A26010E1B6E1A2AF3
:100710008CEF03F0D8901B361A2E8AEF03F01B5093
:10072000FF0A931646EF04F017BEA2EF03F017502E
:1007300007E1180E165CD8B0A0EF03F0A2EF03F0AB
:10074000D0EF03F018501910D8B4A9EF03F0ABEFB5
:1007500003F0BDEF03F016C01AF0F00E1A26010EDA
:100760001B6E1A2AB6EF03F0D8901B361A2EB4EF80
:1007700003F01B50941246EF04F016C01AF0F00E6E
:100780001A26010E1B6E1A2AC8EF03F0D8901B36EA
:100790001A2EC6EF03F01B50FF0A941646EF04F022
:1007A00017BEDEEF03F0175007E1200E165CD8B03D
:1007B000DCEF03F0DEEF03F00CEF04F0185019103B
:1007C000D8B4E5EF03F0E7EF03F0F9EF03F016C05C
:1007D0001AF0E80E1A26010E1B6E1A2AF2EF03F029
:1007E000D8901B361A2EF0EF03F01B50951246EFEF
:1007F00004F016C01AF0E80E1A26010E1B6E1A2A13
:1008000004EF04F0D8901B361A2E02EF04F01B50B0
:10081000FF0A951646EF04F017BE1AEF04F01750C2
:1008200007E1280E165CD8B018EF04F01AEF04F0B8
:1008300046EF04F018501910D8B421EF04F023EF5C
:1008400004F035EF04F016C01AF0E00E1A26010E7F
:100850001B6E1A2A2EEF04F0D8901B361A2E2CEF9E
:1008600004F01B50961246EF04F016C01AF0E00E8A
:100870001A26010E1B6E1A2A40EF04F0D8901B3680
:100880001A2E3EEF04F01B50FF0A9616120017BEF8
:1008900055EF04F0175007E1080E165CD8B053EF7F
:1008A00004F055EF04F07FEF04F018501910D8B49D
:1008B0005CEF04F05EEF04F06EEF04F016C01AF087
:1008C000010E1B6E1A2A67EF04F0D8901B361A2E01
:1008D00065EF04F01B5080126DEF05F016C01AF0A2
:1008E000010E1B6E1A2A77EF04F0D8901B361A2ED1
:1008F00075EF04F01B50FF0A80166DEF05F017BE70
:100900008DEF04F0175007E1100E165CD8B08BEF96
:1009100004F08DEF04F0BBEF04F0F80E1626FF0E86
:10092000172218501910D8B498EF04F09AEF04F079
:10093000AAEF04F016C01AF0010E1B6E1A2AA3EFDC
:1009400004F0D8901B361A2EA1EF04F01B50811230
:100950006DEF05F016C01AF0010E1B6E1A2AB3EFE8
:1009600004F0D8901B361A2EB1EF04F01B50FF0A8A
:1009700081166DEF05F017BEC9EF04F0175007E1BF
:10098000180E165CD8B0C7EF04F0C9EF04F0F7EF0B
:1009900004F0F00E1626FF0E172218501910D8B4C6
:1009A000D4EF04F0D6EF04F0E6EF04F016C01AF02E
:1009B000010E1B6E1A2ADFEF04F0D8901B361A2E98
:1009C000DDEF04F01B5082126DEF05F016C01AF037
:1009D000010E1B6E1A2AEFEF04F0D8901B361A2E68
:1009E000EDEF04F01B50FF0A82166DEF05F017BE05
:1009F00005EF05F0175007E1200E165CD8B003EFA5
:100A000005F005EF05F033EF05F0E80E1626FF0EB2
:100A1000172218501910D8B410EF05F012EF05F096
:100A200022EF05F016C01AF0010E1B6E1A2A1BEFFA
:100A300005F0D8901B361A2E19EF05F01B508312C3
:100A40006DEF05F016C01AF0010E1B6E1A2A2BEF7F
:100A500005F0D8901B361A2E29EF05F01B50FF0A1F
:100A600083166DEF05F017BE41EF05F0175007E153
:100A7000280E165CD8B03FEF05F041EF05F06DEFA2
:100A800005F0E00E1626FF0E172218501910D8B4E4
:100A90004CEF05F04EEF05F05EEF05F016C01AF0D2
:100AA000010E1B6E1A2A57EF05F0D8901B361A2E2E
:100AB00055EF05F01B5084126DEF05F016C01AF0CB
:100AC000010E1B6E1A2A67EF05F0D8901B361A2EFE
:100AD00065EF05F01B50FF0A8416120083CF1BF050
:100AE0000F0E9512000E1F6EF80E93161FC016F013
:100AF000010E176E162A7FEF05F0D8901736162EC6
:100B00007DEF05F017509312070E81121FC016F0EB
:100B1000010E176E162A8FEF05F0D8901736162E95
:100B20008DEF05F01750FF0A8116000E1D6E000EA6
:100B30001C6E1C4A1D2A1DBEA7EF05F01D5009E1C1
:100B40000A0E1C5CD8A0A7EF05F0A9EF05F099EFFD
:100B500005F0000E1E6E1EC016F0010E176E162A4E
:100B6000B4EF05F0D8901736162EB2EF05F01750F7
:100B700083140009D8A4BFEF05F0C1EF05F0D9EF49
:100B800005F01F50040DF3501E24166E010E176E53
:100B9000000E186E162AD0EF05F0D89017361836CA
:100BA000162ECDEF05F01750281218502912F3EF2A
:100BB00005F01F50040DF3501E24166E010E176E23
:100BC000000E186E162AE8EF05F0D8901736183682
:100BD000162EE5EF05F0171C196E181C1A6E195029
:100BE00028161A5029161E2A030E1E64FAEF05F065
:100BF000FCEF05F0ABEF05F01F2A020E1F6403EFB8
:100C000006F005EF06F074EF05F02850261807E10E
:100C100029502718D8A40FEF06F011EF06F014EFB3
:100C200006F032061AEF06F00A0E326E28C026F0E1
:100C300029C027F03250D8A420EF06F022EF06F0AA
:100C400026EF06F026C02AF027C02BF01BC083FF3A
:100C5000000E956E12006EEC05F061EC09F0165076
:100C6000156E15A036EF06F038EF06F0A9EF06F086
:100C70006EEC05F01550236E246A61EC09F02350E8
:100C8000161809E124501718D8B449EF06F04BEFB5
:100C900006F038EF06F061EC09F01650156E15A657
:100CA00054EF06F056EF06F065EF06F02C50D8A48E
:100CB0005CEF06F05EEF06F062EF06F0090E2C6EB8
:100CC00085EF06F02C0685EF06F015AE6AEF06F00C
:100CD0006CEF06F07CEF06F0090E2C18D8A473EF29
:100CE00006F075EF06F079EF06F0000E2C6E85EF3A
:100CF00006F02C2A85EF06F015A281EF06F083EFAF
:100D000006F085EF06F0A4EF06F0010E94EC07F074
:100D1000000E1E6E010EAEEC08F0110E1E6E060ED9
:100D20001F6E0FEC08F0000E1E6E000EAEEC08F009
:100D30002C50130D020EF3241E6E010EF4201F6EB4
:100D40000FEC08F038EF06F0000E1E6E000EAEEC51
:100D500008F01200457374616D6F73205669766FE9
:100D600073000000004368656961206465204D617F
:100D70006E696173000045205461726465204465AA
:100D80006D616973000000536F7A696E686F0000CF
:100D90000000000000000000436967616E61000010
:100DA0000000000000000000004369756D657320BD
:100DB000646520566F636500000045787472617049
:100DC0006F6C6569000000000000004465757320C9
:100DD0006D65204C69767265000000004D6172619E
:100DE00076696C686100000000000000004D6564D9
:100DF0006964612045786174610000000000000EA4
:100E0000256E000E246ED8902434D96E2534DA6E07
:100E1000010ED926000EDA2224C016F025C017F0E4
:100E2000000E196E130E186E24EC09F0000E162435
:100E3000E16E010E1720E26EDECFE6FFDDCFE5FFAB
:100E400024C016F025C017F0000E196E130E186E90
:100E500024EC09F0020E16241C6E010E17201D6EE4
:100E600024C016F025C017F0000E196E110E186E72
:100E700024EC09F0000E16241E6E020E17201F6EC1
:100E800005EC09F0244A252A255009E10A0E245CC4
:100E9000D8A04DEF07F04FEF07F003EF07F0120077
:100EA000FFEC06F0D3EC07F05CEC09F00F0E94ECCD
:100EB00007F0060E1E6E000EAEEC08F03A0E1E6E27
:100EC000060E1F6E0FEC08F0060E1E6E010EAEEC45
:100ED00008F0330E1E6E060E1F6E0FEC08F0070EA4
:100EE000176ED00E166E4BEC08F0010E94EC07F066
:100EF000000E1E6E000EAEEC08F0220E1E6E060EE8
:100F00001F6E0FEC08F0000E1E6E010EAEEC08F026
:100F1000110E1E6E060E1F6E0FEC08F02BEC06F085
:100F200083EF07F000EF00F01D6E83CF1CF0000E82
:100F3000956E000E176E220E166E000E196E000EC4
:100F4000186E47EC04F01DC083FF000E176E210ED3
:100F5000166E000E196E010E186E47EC04F0000EAE
:100F6000176E210E166E000E196E000E186E47ECED
:100F700004F01CC083FF020E1D18D8B4C2EF07F0A6
:100F8000C4EF07F0CCEF07F01D04D8A4CAEF07F0B8
:100F9000CCEF07F0D0EF07F037EC09F0D2EF07F015
:100FA00045EC09F01200000E176E220E166E000EB0
:100FB000196E000E186E20EC03F0000E176E210E55
:100FC000166E000E196E000E186E20EC03F0000E67
:100FD000956E37EC09F037EC09F037EC09F037EC97
:100FE00009F037EC09F0380E94EC07F037EC09F013
:100FF00037EC09F0380E94EC07F037EC09F0380EB6
:1010000094EC07F0380E94EC07F0060E94EC07F021
:101010000C0E94EC07F0010E94EC07F01200000E99
:10102000226E2CEF08F022501E24206E000E1F208E
:10103000216E20C0F6FF21C0F7FFF86A050EF764A5
:1010400003D00800F55005D0F6CFE9FFF7CFEAFF4F
:10105000EF50DBEC08F0222A22501E24206E000EF6
:101060001F20216E20C0F6FF21C0F7FFF86A050E91
:10107000F76403D00800F55005D0F6CFE9FFF7CFAD
:10108000EAFFEF500009D8A448EF08F04AEF08F053
:1010900013EF08F01200000E196E000E186E71EFBB
:1010A00008F0000E1A6E280E1A6459EF08F05BEF74
:1010B00008F05DEF08F06FEF08F0000E1B6E020EF7
:1010C0001B6465EF08F067EF08F069EF08F06CEF5C
:1010D00008F01B2A5FEF08F01A2A53EF08F0184AAD
:1010E000192A1650185C17501958D8A07AEF08F032
:1010F0007CEF08F051EF08F01200540EF66E0D0E62
:10110000F76E000EF86E02EE00F010EEAAF0090085
:10111000F5CFEEFFE550E150FAE1A20EF66E120EA9
:10112000F76E000EF86E00EE01F010EE15F00900FB
:10113000F5CFEEFFE550E150FAE101EE00F0BE0E12
:10114000EE6AE806FDE100EE26F00D0EEE6AE80616
:10115000FDE1000EF86E000150EF07F01F6E000E6B
:10116000206E1F50D8A4B7EF08F0B9EF08F0BCEF1D
:1011700008F01E50800F206E1F04D8A4C2EF08F0A4
:10118000C4EF08F0CFEF08F02004D8B4CAEF08F09D
:10119000CCEF08F0CFEF08F01E50C00F206E0F0EFE
:1011A0001E64D5EF08F0D7EF08F0D7EF08F0205015
:1011B00094EC07F012001C6E83CF1DF0000E956EAC
:1011C000000E176E220E166E000E196E010E186EAE
:1011D00047EC04F01CC083FF000E176E210E166E44
:1011E000000E196E010E186E47EC04F0000E176E1B
:1011F000210E166E000E196E000E186E47EC04F0EC
:101200001DC083FF45EC09F012001EC020F01FC076
:1012100021F01CC022F01DC023F020C0D9FF21C046
:10122000DAFF204A212A22C0E1FF23C0E2FF224A3E
:10123000232ADFCFE7FFE750D8A421EF09F023EFFF
:1012400009F00DEF09F0120016501802F3CF1AF052
:10125000F4CF1BF016501902F3501B26175018023A
:10126000F3501B261AC016F01BC017F01200000E18
:10127000176E45EC09F0172A310E176442EF09F09A
:1012800044EF09F039EF09F01200000E166E162A2D
:10129000180E16644EEF09F050EF09F047EF09F011
:1012A0001200B400B400B400B400B400B400B40040
:0712B000B400B400B400100B
:1012B800070E93160F0E951212002AC016F02BC0B7
:0412C80017F0120009
:020000040020DA
:08000000FFFFFFFFFFFFFFFF00
:020000040030CA
:0E000000FF027100FF8380FF0FC00FE00F4072
:00000001FF
