:020000040000FA
:0400000007EF0DF009
:10060000003F065B4F666D7D077F6F777C395E79B3
:10061000714573636F6C68612061206D75736963E8
:1006200061003C2D28312920282A29202028322920
:100630002D3E002D2831292020282A29202028324B
:0F064000292B00506C61796572004D503300001A
:1006500049EC0EF0010EAEEC0BF0000E286E000E11
:1006600038EC0DF04B50130D020EF324286E010EE2
:10067000F420296E29EC0CF0000E286E010E38ECE7
:100680000DF0330E286E060E296E29EC0CF04B503F
:10069000130D000EF324D96E010EF420DA6EDF5034
:1006A000496E78EF04F0640E9FEC0CF0000E236EA0
:1006B0003C0E226E49C020F0216A06EC0AF020C0F0
:1006C00028F021C029F0000E2B6E0A0E2A6E68EC6D
:1006D0000AF02850486E000E236E3C0E226E49C070
:1006E00020F0216A06EC0AF020C030F021C031F081
:1006F00030C020F031C021F0000E236E0A0E226EB1
:1007000006EC0AF02050476E000E2B6E3C0E2A6E4F
:1007100049C028F0296A68EC0AF028C032F029C0E4
:1007200033F032C028F033C029F0000E2B6E0A0ED1
:100730002A6E68EC0AF02850466E000E2B6E3C0EB6
:100740002A6E49C028F0296A68EC0AF028C020F017
:1007500029C021F0000E236E0A0E226E06EC0AF06C
:100760002050456E000E206E475065EC0DF0010ED6
:10077000206E485065EC0DF0020E206E455065EC81
:100780000DF0030E206E465065EC0DF0000E346E39
:1007900099EC07F0000E216E0A0E206ED5EC0CF0DD
:1007A000DCEC06F067EC0EF020501F6E1FA6DBEFAE
:1007B00003F0DDEF03F0F3EF03F0E7EF03F099EC64
:1007C00007F0DCEC06F067EC0EF020501F6E1FB651
:1007D000ECEF03F0EEEF03F0DFEF03F0000EE1ECDF
:1007E00008F066EF04F01FAEF8EF03F0FAEF03F045
:1007F00010EF04F004EF04F099EC07F0DCEC06F0E5
:1008000067EC0EF020501F6E1FBE09EF04F00BEFD7
:1008100004F0FCEF03F0010EE1EC08F066EF04F0E9
:100820001FA015EF04F017EF04F038EF04F021EFEC
:1008300004F099EC07F0DCEC06F067EC0EF02050C9
:100840001F6E1FB026EF04F028EF04F019EF04F03C
:100850001E50D8A42EEF04F030EF04F034EF04F073
:10086000010E1E6E66EF04F0000E1E6E66EF04F0C1
:100870001FA83DEF04F03FEF04F066EF04F049EFEE
:1008800004F099EC07F0DCEC06F067EC0EF0205079
:100890001F6E1FB84EEF04F050EF04F041EF04F06C
:1008A000000E206E000E65EC0DF0010E206E000EA5
:1008B00065EC0DF0020E206E000E65EC0DF0030EDF
:1008C000206E000E65EC0DF08DEF04F0342A630EFF
:1008D00034646DEF04F06FEF04F0C8EF03F01E50C6
:1008E000D8A475EF04F077EF04F078EF04F0490630
:1008F0004950D8A47EEF04F080EF04F053EF03F0EA
:10090000000E926E000E9FEC0CF09482010E216E90
:10091000F40E206ED5EC0CF09492120021BE9CEFE8
:1009200004F0215007E1080E205CD8B09AEF04F0E3
:100930009CEF04F0C6EF04F022502310D8B4A3EFCC
:1009400004F0A5EF04F0B5EF04F020C024F0010E90
:10095000256E242AAEEF04F0D8902536242EACEF75
:1009600004F025509212B4EF05F020C024F0010EDF
:10097000256E242ABEEF04F0D8902536242EBCEF35
:1009800004F02550FF0A9216B4EF05F021BED4EF13
:1009900004F0215007E1100E205CD8B0D2EF04F033
:1009A000D4EF04F002EF05F022502310D8B4DBEFAF
:1009B00004F0DDEF04F0EFEF04F020C024F0F80EB7
:1009C0002426010E256E242AE8EF04F0D89025365F
:1009D000242EE6EF04F025509312B4EF05F020C06A
:1009E00024F0F80E2426010E256E242AFAEF04F0D6
:1009F000D8902536242EF8EF04F02550FF0A9316E0
:100A0000B4EF05F021BE10EF05F0215007E1180EFC
:100A1000205CD8B00EEF05F010EF05F03EEF05F0CA
:100A200022502310D8B417EF05F019EF05F02BEF83
:100A300005F020C024F0F00E2426010E256E242A95
:100A400024EF05F0D8902536242E22EF05F025500E
:100A50009412B4EF05F020C024F0F00E2426010E0D
:100A6000256E242A36EF05F0D8902536242E34EF53
:100A700005F02550FF0A9416B4EF05F021BE4CEFA7
:100A800005F0215007E1200E205CD8B04AEF05F0B8
:100A90004CEF05F07AEF05F022502310D8B453EF55
:100AA00005F055EF05F067EF05F020C024F0E80EE3
:100AB0002426010E256E242A60EF05F0D8902536F5
:100AC000242E5EEF05F025509512B4EF05F020C0FE
:100AD00024F0E80E2426010E256E242A72EF05F07C
:100AE000D8902536242E70EF05F02550FF0A951674
:100AF000B4EF05F021BE88EF05F0215007E1280E84
:100B0000205CD8B086EF05F088EF05F0B4EF05F073
:100B100022502310D8B48FEF05F091EF05F0A3EF2A
:100B200005F020C024F0E00E2426010E256E242AB4
:100B30009CEF05F0D8902536242E9AEF05F025502D
:100B40009612B4EF05F020C024F0E00E2426010E2A
:100B5000256E242AAEEF05F0D8902536242EACEF72
:100B600005F02550FF0A9616120021BEC3EF05F0CE
:100B7000215007E1080E205CD8B0C1EF05F0C3EFAB
:100B800005F0EDEF05F022502310D8B4CAEF05F0C0
:100B9000CCEF05F0DCEF05F020C024F0010E256E4F
:100BA000242AD5EF05F0D8902536242ED3EF05F072
:100BB00025508012DBEF06F020C024F0010E256ED8
:100BC000242AE5EF05F0D8902536242EE3EF05F032
:100BD0002550FF0A8016DBEF06F021BEFBEF05F083
:100BE000215007E1100E205CD8B0F9EF05F0FBEFC3
:100BF00005F029EF06F0F80E2026FF0E21222250E4
:100C00002310D8B406EF06F008EF06F018EF06F050
:100C100020C024F0010E256E242A11EF06F0D89092
:100C20002536242E0FEF06F025508112DBEF06F05B
:100C300020C024F0010E256E242A21EF06F0D89062
:100C40002536242E1FEF06F02550FF0A8116DBEF14
:100C500006F021BE37EF06F0215007E1180E205CA8
:100C6000D8B035EF06F037EF06F065EF06F0F00E7E
:100C70002026FF0E212222502310D8B442EF06F086
:100C800044EF06F054EF06F020C024F0010E256E6C
:100C9000242A4DEF06F0D8902536242E4BEF06F08F
:100CA00025508212DBEF06F020C024F0010E256EE5
:100CB000242A5DEF06F0D8902536242E5BEF06F04F
:100CC0002550FF0A8216DBEF06F021BE73EF06F017
:100CD000215007E1200E205CD8B071EF06F073EFD1
:100CE00006F0A1EF06F0E80E2026FF0E212222508A
:100CF0002310D8B47EEF06F080EF06F090EF06F0F8
:100D000020C024F0010E256E242A89EF06F0D89029
:100D10002536242E87EF06F025508312DBEF06F0F0
:100D200020C024F0010E256E242A99EF06F0D890F9
:100D30002536242E97EF06F02550FF0A8316DBEFA9
:100D400006F021BEAFEF06F0215007E1280E205C2F
:100D5000D8B0ADEF06F0AFEF06F0DBEF06F0E00E37
:100D60002026FF0E212222502310D8B4BAEF06F01D
:100D7000BCEF06F0CCEF06F020C024F0010E256E8B
:100D8000242AC5EF06F0D8902536242EC3EF06F0AE
:100D900025508412DBEF06F020C024F0010E256EF2
:100DA000242AD5EF06F0D8902536242ED3EF06F06E
:100DB0002550FF0A8416120083CF25F00F0E9512DE
:100DC000000E296EF80E931629C020F0010E216E38
:100DD000202AEDEF06F0D8902136202EEBEF06F01A
:100DE00021509312070E811229C020F0010E216EAE
:100DF000202AFDEF06F0D8902136202EFBEF06F0DA
:100E00002150FF0A8116000E276E000E266E264A1C
:100E1000272A27BE15EF07F0275009E10A0E265CA6
:100E2000D8A015EF07F017EF07F007EF07F0000E57
:100E3000286E28C020F0010E216E202A22EF07F034
:100E4000D8902136202E20EF07F02150831400097E
:100E5000D8A42DEF07F02FEF07F047EF07F0295048
:100E6000040DF3502824206E010E216E000E226E18
:100E7000202A3EEF07F0D89021362236202E3BEF75
:100E800007F02150391222503A1261EF07F0295031
:100E9000040DF3502824206E010E216E000E226EE8
:100EA000202A56EF07F0D89021362236202E53EF15
:100EB00007F0211C236E221C246E23503916245067
:100EC0003A16282A030E286468EF07F06AEF07F045
:100ED00019EF07F0292A020E296471EF07F073EF6A
:100EE00007F0E2EF06F03950371807E13A503818AA
:100EF000D8A47DEF07F07FEF07F082EF07F03D0603
:100F000088EF07F00A0E3D6E39C037F03AC038F06E
:100F10003D50D8A48EEF07F090EF07F094EF07F064
:100F200037C03BF038C03CF025C083FF000E956E03
:100F30001200000E956E000E216E020E206E000E45
:100F4000236E000E226EB5EC05F0000E216E030E2E
:100F5000206E000E236E000E226EB5EC05F0000E22
:100F6000216E040E206E000E236E000E226EB5EC74
:100F700005F0000E216E050E206E000E236E000E91
:100F8000226EB5EC05F0000E836E23EF08F0010E23
:100F90004224F66EF76A060EF7220800F5CF83FFAB
:100FA000000E216E020E206E000E236E010E226EC8
:100FB000B5EC05F0010E436E40EF08F0010E412440
:100FC000F66EF76A060EF7220800F5CF83FF000ED3
:100FD000216E030E206E000E236E010E226EB5EC04
:100FE00005F0020E436E40EF08F0010E4024F66E4D
:100FF000F76A060EF7220800F5CF83FF000E216E78
:10100000040E206E000E236E010E226EB5EC05F06C
:10101000030E436E40EF08F0010E3F24F66EF76AB0
:10102000060EF7220800F5CF83FF000E216E050E95
:10103000206E000E236E010E226EB5EC05F0000E40
:10104000436E40EF08F04350266E276A2750000A8F
:10105000D8B42DEF08F01FEF08F02650000AD8B4DE
:10106000C7EF07F0010AD8B4DEEF07F0030AD8B4DF
:10107000F5EF07F0010AD8B40CEF08F01FEF08F005
:101080001200DCEC06F067EC0EF020501F6E99ECBD
:1010900007F01FB64EEF08F050EF08F057EF08F0DA
:1010A0001FAE55EF08F057EF08F0E0EF08F0010E23
:1010B0004A6E99EC07F0DCEC06F0000E216E0A0E89
:1010C000206ED5EC0CF01F50356E366A67EC0EF0D2
:1010D0003550201807E136502118D8A472EF08F0D7
:1010E00074EF08F07CEF08F04A04D8A47AEF08F017
:1010F0007CEF08F059EF08F067EC0EF020501F6EFF
:101100001FA685EF08F087EF08F096EF08F04B5028
:10111000D8A48DEF08F08FEF08F093EF08F0090ED8
:101120004B6EB8EF08F04B06B8EF08F01FAE9BEF20
:1011300008F09DEF08F0ADEF08F0090E4B18D8A4A9
:10114000A4EF08F0A6EF08F0AAEF08F0000E4B6E2F
:10115000B8EF08F04B2AB8EF08F01FA0B2EF08F084
:10116000B4EF08F0B8EF08F0000E4A6EDEEF08F0BA
:10117000010EAEEC0BF0000E286E010E38EC0DF0F7
:10118000220E286E060E296E29EC0CF0000E286E39
:10119000000E38EC0DF04B50130D020EF324286EA8
:1011A000010EF420296E29EC0CF0030E206E4B503A
:1011B00065EC0DF0000E4A6E59EF08F028EC03F0D4
:1011C0001200266E2604D8A4E8EF08F0EAEF08F033
:1011D000F6EF08F0080E1D18D8B4F1EF08F0F3EFA1
:1011E00008F0FFEF08F01D2AFFEF08F01D50D8B4FB
:1011F000FCEF08F0FEEF08F0FFEF08F01D0695CFBA
:1012000027F0000E806E000E956E1D50D8A40BEFD7
:1012100009F00DEF09F011EF09F0000E836E77EF82
:1012200009F01D04D8A417EF09F019EF09F01DEF1C
:1012300009F0800E836E77EF09F0020E1D18D8A416
:1012400024EF09F026EF09F02AEF09F0C00E836EB3
:1012500077EF09F0030E1D18D8A431EF09F033EF32
:1012600009F037EF09F0E00E836E77EF09F0040E16
:101270001D18D8A43EEF09F040EF09F044EF09F043
:10128000F00E836E77EF09F0050E1D18D8A44BEF12
:1012900009F04DEF09F051EF09F0F80E836E77EF8A
:1012A00009F0060E1D18D8A458EF09F05AEF09F0FE
:1012B0005EEF09F0FC0E836E77EF09F0070E1D1844
:1012C000D8A465EF09F067EF09F06BEF09F0FE0EA7
:1012D000836E77EF09F0080E1D18D8A472EF09F09D
:1012E00074EF09F077EF09F0836877EF09F0010EEA
:1012F000216EF40E206ED5EC0CF027C095FF120085
:10130000000E296E27BE89EF09F087EF09F093EFF1
:1013100009F0271E261E251E246C000E25222622DB
:101320002722010E296E23BE9AEF09F098EF09F0EB
:10133000A4EF09F0231E221E211E206C000E212284
:1013400022222322010E291A000E2A6E000E2B6E75
:10135000000E2C6E000E2D6E245025102610271026
:10136000D8B4B5EF09F0B7EF09F0EDEF09F0010ED1
:10137000286EC1EF09F0D890243625362636273658
:10138000282A27AEC6EF09F0C8EF09F0BBEF09F035
:10139000D8902A362B362C362D362450205C2550FA
:1013A00021582650225827502358D8A0DAEF09F0A8
:1013B000DCEF09F0E5EF09F02450205E2550215ABA
:1013C0002650225A2750235A2A80D8902732263274
:1013D00025322432282EC8EF09F02950D8B4F3EF73
:1013E00009F0F5EF09F0FDEF09F02D1E2C1E2B1E64
:1013F0002A6C000E2B222C222D222AC020F02BC07A
:1014000021F02CC022F02DC023F01200000E256E1A
:1014100023BE0FEF0AF00DEF0AF015EF0AF0226C71
:10142000231ED8B0232A010E256E21BE1CEF0AF020
:101430001AEF0AF022EF0AF0206C211ED8B0212A00
:10144000010E251A000E276E000E266E2250231064
:10145000D8B42DEF0AF02FEF0AF057EF0AF0010E83
:10146000246E37EF0AF0D89022362336242A23AE92
:101470003CEF0AF03EEF0AF033EF0AF0D890263640
:1014800027362250205C23502158D8A04AEF0AF07A
:101490004CEF0AF051EF0AF02250205E2350215AFF
:1014A0002680D89023322232242E3EEF0AF0255097
:1014B000D8B45DEF0AF05FEF0AF063EF0AF0266C34
:1014C000271ED8B0272A26C020F027C021F01200FE
:1014D000000E2D6E29BE71EF0AF06FEF0AF077EF64
:1014E0000AF0286C291ED8B0292A010E2D6E2BBEB9
:1014F0007EEF0AF07CEF0AF082EF0AF02A6C2B1ED6
:10150000D8B02B2A2A502B10D8B489EF0AF08BEFD1
:101510000AF0AFEF0AF0010E2C6E93EF0AF0D890AC
:101520002A362B362C2A2BAE98EF0AF09AEF0AF0C7
:101530008FEF0AF02A50285C2B502958D8A0A3EF2F
:101540000AF0A5EF0AF0A9EF0AF02A50285E2B5006
:10155000295AD8902B322A322C2E9AEF0AF02D508D
:10156000D8B4B5EF0AF0B7EF0AF0BBEF0AF0286C79
:10157000291ED8B0292A28C028F029C029F0120035
:1015800054656D706F72616C000000000000000017
:10159000004368656961206465204D616E6961730F
:1015A0000000452054617264652044656D61697373
:1015B000000000536F7A696E686F00000000000041
:1015C00000000000436967616E61000000000000D8
:1015D00000000000004369756D6573206465205646
:1015E0006F63650000004578747261706F6C6569A7
:1015F0000000000000000044657573206D65204CFC
:1016000069767265000000004D61726176696C68F0
:101610006100000000000000004D65646964612005
:1016200045786174610000000000000E946E000EA9
:101630002F6E000E2E6ED8902E34D96E2F34DA6EA7
:10164000010ED926000EDA222EC020F02FC021F084
:10165000000E236E130E226E05EC0EF0000E2024F9
:10166000E16E010E2120E26EDECFE6FFDDCFE5FF69
:101670002EC020F02FC021F0000E236E130E226E1C
:1016800005EC0EF0020E2024266E010E2120276E9E
:101690002EC020F02FC021F0000E236E110E226EFE
:1016A00005EC0EF0000E2024286E020E2120296E7B
:1016B000E6EC0DF02E4A2F2A2F5009E10A0E2E5C7F
:1016C000D8A065EF0BF067EF0BF01BEF0BF01200EB
:1016D00015EC0BF0EDEC0BF091EC0DF062EC0EF074
:1016E0000F0EAEEC0BF0060E286E000E38EC0DF06F
:1016F0004A0E286E060E296E29EC0CF0040E286E98
:10170000010E38EC0DF0430E286E060E296E29EC02
:101710000CF0070E216ED00E206ED5EC0CF0010EF1
:10172000AEEC0BF0000E286E000E38EC0DF0110E32
:10173000286E060E296E29EC0CF0000E286E010EA4
:1017400038EC0DF0220E286E060E296E29EC0CF0F6
:1017500041EC08F09DEF0BF000EF00F0276E83CF17
:1017600026F0000E956E000E216E220E206E000EE9
:10177000236E000E226EB5EC05F027C083FF000E2D
:10178000216E210E206E000E236E010E226EB5EC2E
:1017900005F0000E216E210E206E000E236E000E4D
:1017A000226EB5EC05F026C083FF020E2718D8B4D0
:1017B000DCEF0BF0DEEF0BF0E6EF0BF02704D8A424
:1017C000E4EF0BF0E6EF0BF0EAEF0BF03BEC0EF082
:1017D000ECEF0BF056EC0EF01200000E216E220E14
:1017E000206E000E236E000E226E8EEC04F0000EB2
:1017F000216E210E206E000E236E000E226E8EECE6
:1018000004F0000E956E3BEC0EF03BEC0EF03BEC62
:101810000EF03BEC0EF03BEC0EF0380EAEEC0BF0A5
:101820003BEC0EF03BEC0EF0380EAEEC0BF03BEC6C
:101830000EF0380EAEEC0BF0380EAEEC0BF0060EE0
:10184000AEEC0BF00C0EAEEC0BF0010EAEEC0BF0B0
:101850001200000E2C6E46EF0CF02C5028242A6E3D
:10186000000E29202B6E2AC0F6FF2BC0F7FFF86A66
:10187000050EF76403D00800F55005D0F6CFE9FF58
:10188000F7CFEAFFEF50BCEC0DF02C2A2C502824A7
:101890002A6E000E29202B6E2AC0F6FF2BC0F7FF00
:1018A000F86A050EF76403D00800F55005D0F6CFAE
:1018B000E9FFF7CFEAFFEF500009D8A462EF0CF080
:1018C00064EF0CF02DEF0CF01200000E256E000EF0
:1018D000246E22502310D8B470EF0CF072EF0CF08D
:1018E0009AEF0CF0010E266E7AEF0CF0D8902236AB
:1018F0002336262A23AE7FEF0CF081EF0CF076EF33
:101900000CF0D890243625362250205C23502158E4
:10191000D8A08DEF0CF08FEF0CF094EF0CF022506C
:10192000205E2350215A2480D89023322232262E42
:1019300081EF0CF024C020F025C021F01200296EA8
:10194000010ECB24206E216A000E212229C022F034
:10195000236A05EC0EF020C02AF021C02BF02AC02B
:1019600020F02BC021F0000E236E190E226E65ECC4
:101970000CF020C02AF021C02BF0FF0E2A16030E17
:101980002B162AC027F02BC028F0D89028322732F7
:10199000D890283227322750BE6E2AC027F0030E77
:1019A00027162738F00BBD121200000E236E000E12
:1019B000226EFBEF0CF0000E246E280E2464E3EF81
:1019C0000CF0E5EF0CF0E7EF0CF0F9EF0CF0000E87
:1019D000256E020E2564EFEF0CF0F1EF0CF0F3EF43
:1019E0000CF0F6EF0CF0252AE9EF0CF0242ADDEFDD
:1019F0000CF0224A232A2050225C21502358D8A0E0
:101A000004EF0DF006EF0DF0DBEF0CF01200800E8E
:101A1000F66E150EF76E000EF86E02EE00F010EE88
:101A2000AAF00900F5CFEEFFE550E150FAE1560EBD
:101A3000F66E1C0EF76E000EF86E00EE01F010EE62
:101A40001FF00900F5CFEEFFE550E150FAE101EE9D
:101A500000F0BE0EEE6AE806FDE100EE37F0150E6E
:101A6000EE6AE806FDE1000EF86E000168EF0BF08B
:101A7000296E000E2A6E2950D8A441EF0DF043EFD5
:101A80000DF046EF0DF02850800F2A6E2904D8A4DF
:101A90004CEF0DF04EEF0DF059EF0DF02A04D8B4D5
:101AA00054EF0DF056EF0DF059EF0DF02850C00F28
:101AB0002A6E0F0E28645FEF0DF061EF0DF061EFFD
:101AC0000DF02A50AEEC0BF01200216E2050D8A47D
:101AD0006CEF0DF06EEF0DF070EF0DF021C042F0E5
:101AE0002004D8A476EF0DF078EF0DF07AEF0DF02A
:101AF00021C041F0020E2018D8A481EF0DF083EF31
:101B00000DF085EF0DF021C040F0030E2018D8A491
:101B10008CEF0DF08EEF0DF090EF0DF021C03FF047
:101B20001200000E216E020E206E000E236E000EBB
:101B3000226E8EEC04F0000E216E030E206E000E5D
:101B4000236E000E226E8EEC04F0000E216E040E49
:101B5000206E000E236E000E226E8EEC04F0000E3E
:101B6000216E050E206E000E236E000E226E8EEC8E
:101B700004F0000E956E1200266E83CF27F0000E43
:101B8000956E000E216E220E206E000E236E010E49
:101B9000226EB5EC05F026C083FF000E216E210EEB
:101BA000206E000E236E010E226EB5EC05F0000EC5
:101BB000216E210E206E000E236E000E226EB5ECFB
:101BC00005F027C083FF56EC0EF0120028C02AF063
:101BD00029C02BF026C02CF027C02DF02AC0D9FF39
:101BE0002BC0DAFF2A4A2B2A2CC0E1FF2DC0E2FFCE
:101BF0002C4A2D2ADFCFE7FFE750D8A402EF0EF0E2
:101C000004EF0EF0EEEF0DF0120020502202F3CFA1
:101C100024F0F4CF25F020502302F3502526215044
:101C20002202F350252624C020F025C021F0120006
:101C3000480E206EE80E216E010E226E000E236EFD
:101C40002EC024F02FC025F0266A276A80EC09F008
:101C50002004CB6E120046000F0078003C000A0002
:101C6000280014001E008C000A000A070401000866
:051C7000050203011054
:101C7600000E216E56EC0EF0212A310E216446EF3D
:101C86000EF048EF0EF03DEF0EF012009494030EA6
:101C9600CA12CA840C0EBD6E000E2F6E640E2E6E16
:101CA60018EC0EF01200000E206E202A180E20648A
:101CB6005FEF0EF061EF0EF058EF0EF01200070E18
:101CC60093160F0E951212003BC020F03CC021F077
:021CD6001200FA
:020000040020DA
:08000000FFFFFFFFFFFFFFFF00
:020000040030CA
:0E000000FF027100FF8380FF0FC00FE00F4072
:00000001FF
