:020000040000FA
:0400000005EF0CF00C
:10060000003F065B4F666D7D077F6F777C395E79B3
:10061000713C2D28312920282A2920202832292DF3
:100620003E004573636F6C68612061206D7573696E
:100630006361002D2831292020282A2920202832F2
:0F064000292B00506C61796572004D503300001A
:10065000010E1CEC0BF0000E3D6E000E36EC0CF0A3
:100660003450130D020EF3243D6E010EF4203E6E45
:1006700097EC0BF0000E3D6E010E36EC0CF0330ED5
:100680003D6E060E3E6E97EC0BF03450130D000ECF
:10069000F324D96E010EF420DA6EDF50326E73EF60
:1006A00004F0000E386E3C0E376E32C035F0366AFC
:1006B00074EC09F035C03DF036C03EF0000E406EDF
:1006C0000A0E3F6ED6EC09F03D50316E000E386ECA
:1006D0003C0E376E32C035F0366A74EC09F035C026
:1006E00043F036C044F043C035F044C036F0000E4D
:1006F000386E0A0E376E74EC09F03550306E000E0D
:10070000406E3C0E3F6E32C03DF03E6AD6EC09F0C2
:100710003DC045F03EC046F045C03DF046C03EF00D
:10072000000E406E0A0E3F6ED6EC09F03D502F6E63
:10073000000E406E3C0E3F6E32C03DF03E6AD6EC7D
:1007400009F03DC035F03EC036F0000E386E0A0E9E
:10075000376E74EC09F035502E6E000E356E305049
:1007600063EC0CF0010E356E315063EC0CF0020EB0
:10077000356E2E5063EC0CF0030E356E2F5063EC8B
:100780000CF0000E476E8FEC07F0000E366E0A0E6E
:10079000356ED3EC0BF0D2EC06F045EC0DF0355095
:1007A0001F6E1FA6D6EF03F0D8EF03F0EEEF03F0B5
:1007B000E2EF03F08FEC07F0D2EC06F045EC0DF021
:1007C00035501F6E1FB6E7EF03F0E9EF03F0DAEFE5
:1007D00003F0000E37EC08F061EF04F01FAEF3EF0A
:1007E00003F0F5EF03F00BEF04F0FFEF03F08FECF5
:1007F00007F0D2EC06F045EC0DF035501F6E1FBE31
:1008000004EF04F006EF04F0F7EF03F0010E37EC0D
:1008100008F061EF04F01FA010EF04F012EF04F0F5
:1008200033EF04F01CEF04F08FEC07F0D2EC06F08D
:1008300045EC0DF035501F6E1FB021EF04F023EF93
:1008400004F014EF04F01E50D8A429EF04F02BEFAD
:1008500004F02FEF04F0010E1E6E61EF04F0000EA5
:100860001E6E61EF04F01FA838EF04F03AEF04F0B9
:1008700061EF04F044EF04F08FEC07F0D2EC06F0E7
:1008800045EC0DF035501F6E1FB849EF04F04BEFEB
:1008900004F03CEF04F0000E356E000E63EC0CF03B
:1008A000010E356E000E63EC0CF0020E356E000E7C
:1008B00063EC0CF0030E356E000E63EC0CF083EF6E
:1008C00004F0472A630E476468EF04F06AEF04F00F
:1008D000C3EF03F01E50D8A470EF04F072EF04F0E1
:1008E00073EF04F032063250D8A479EF04F07BEFB6
:1008F00004F051EF03F09482010E366EF40E356E63
:10090000D3EC0BF09480120036BE92EF04F0365018
:1009100007E1080E355CD8B090EF04F092EF04F0D8
:10092000BCEF04F037503810D8B499EF04F09BEFC7
:1009300004F0ABEF04F035C039F0010E3A6E392AFD
:10094000A4EF04F0D8903A36392EA2EF04F03A50D2
:100950009212AAEF05F035C039F0010E3A6E392A2D
:10096000B4EF04F0D8903A36392EB2EF04F03A5092
:10097000FF0A9216AAEF05F036BECAEF04F0365011
:1009800007E1100E355CD8B0C8EF04F0CAEF04F0F0
:10099000F8EF04F037503810D8B4D1EF04F0D3EFAB
:1009A00004F0E5EF04F035C039F0F80E3926010EF9
:1009B0003A6E392ADEEF04F0D8903A36392EDCEF61
:1009C00004F03A509312AAEF05F035C039F0F80E52
:1009D0003926010E3A6E392AF0EF04F0D8903A36F3
:1009E000392EEEEF04F03A50FF0A9316AAEF05F005
:1009F00036BE06EF05F0365007E1180E355CD8B06C
:100A000004EF05F006EF05F034EF05F0375038102D
:100A1000D8B40DEF05F00FEF05F021EF05F035C06C
:100A200039F0F00E3926010E3A6E392A1AEF05F028
:100A3000D8903A36392E18EF05F03A509412AAEFB2
:100A400005F035C039F0F00E3926010E3A6E392A1C
:100A50002CEF05F0D8903A36392E2AEF05F03A50AF
:100A6000FF0A9416AAEF05F036BE42EF05F03650A5
:100A700007E1200E355CD8B040EF05F042EF05F0FD
:100A800070EF05F037503810D8B449EF05F04BEF50
:100A900005F05DEF05F035C039F0E80E3926010E9E
:100AA0003A6E392A56EF05F0D8903A36392E54EF7F
:100AB00005F03A509512AAEF05F035C039F0E80E6E
:100AC0003926010E3A6E392A68EF05F0D8903A3689
:100AD000392E66EF05F03A50FF0A9516AAEF05F099
:100AE00036BE7EEF05F0365007E1280E355CD8B0F3
:100AF0007CEF05F07EEF05F0AAEF05F037503810D7
:100B0000D8B485EF05F087EF05F099EF05F035C013
:100B100039F0E00E3926010E3A6E392A92EF05F0CF
:100B2000D8903A36392E90EF05F03A509612AAEF47
:100B300005F035C039F0E00E3926010E3A6E392A3B
:100B4000A4EF05F0D8903A36392EA2EF05F03A50CE
:100B5000FF0A9616120036BEB9EF05F0365007E1CF
:100B6000080E355CD8B0B7EF05F0B9EF05F0E3EF4C
:100B700005F037503810D8B4C0EF05F0C2EF05F0DB
:100B8000D2EF05F035C039F0010E3A6E392ACBEFBD
:100B900005F0D8903A36392EC9EF05F03A50801258
:100BA000D1EF06F035C039F0010E3A6E392ADBEF8D
:100BB00005F0D8903A36392ED9EF05F03A50FF0AB1
:100BC0008016D1EF06F036BEF1EF05F0365007E1A2
:100BD000100E355CD8B0EFEF05F0F1EF05F01FEF28
:100BE00006F0F80E3526FF0E362237503810D8B4EE
:100BF000FCEF05F0FEEF05F00EEF06F035C039F022
:100C0000010E3A6E392A07EF06F0D8903A36392E9F
:100C100005EF06F03A508112D1EF06F035C039F0F9
:100C2000010E3A6E392A17EF06F0D8903A36392E6F
:100C300015EF06F03A50FF0A8116D1EF06F036BEE6
:100C40002DEF06F0365007E1180E355CD8B02BEFCB
:100C500006F02DEF06F05BEF06F0F00E3526FF0EE6
:100C6000362237503810D8B438EF06F03AEF06F095
:100C70004AEF06F035C039F0010E3A6E392A43EFDB
:100C800006F0D8903A36392E41EF06F03A508212EB
:100C9000D1EF06F035C039F0010E3A6E392A53EF24
:100CA00006F0D8903A36392E51EF06F03A50FF0A46
:100CB0008216D1EF06F036BE69EF06F0365007E136
:100CC000200E355CD8B067EF06F069EF06F097EFBD
:100CD00006F0E80E3526FF0E362237503810D8B40D
:100CE00074EF06F076EF06F086EF06F035C039F0C7
:100CF000010E3A6E392A7FEF06F0D8903A36392E37
:100D00007DEF06F03A508312D1EF06F035C039F08E
:100D1000010E3A6E392A8FEF06F0D8903A36392E06
:100D20008DEF06F03A50FF0A8316D1EF06F036BE7B
:100D3000A5EF06F0365007E1280E355CD8B0A3EFDA
:100D400006F0A5EF06F0D1EF06F0E00E3526FF0E17
:100D5000362237503810D8B4B0EF06F0B2EF06F0B4
:100D6000C2EF06F035C039F0010E3A6E392ABBEFFA
:100D700006F0D8903A36392EB9EF06F03A50841280
:100D8000D1EF06F035C039F0010E3A6E392ACBEFBB
:100D900006F0D8903A36392EC9EF06F03A50FF0ADD
:100DA0008416120083CF3AF00F0E9512000E3E6E9D
:100DB000F80E93163EC035F0010E366E352AE3EF7D
:100DC00006F0D8903636352EE1EF06F03650931205
:100DD000070E81123EC035F0010E366E352AF3EF54
:100DE00006F0D8903636352EF1EF06F03650FF0A71
:100DF0008116000E3C6E000E3B6E3B4A3C2A3CBE08
:100E00000BEF07F03C5009E10A0E3B5CD8A00BEF5A
:100E100007F00DEF07F0FDEF06F0000E3D6E3DC050
:100E200035F0010E366E352A18EF07F0D8903636B9
:100E3000352E16EF07F0365083140009D8A423EF9F
:100E400007F025EF07F03DEF07F03E50040DF3509B
:100E50003D24356E010E366E000E376E352A34EFA6
:100E600007F0D89036363736352E31EF07F036504A
:100E700022123750231257EF07F03E50040DF35063
:100E80003D24356E010E366E000E376E352A4CEF5E
:100E900007F0D89036363736352E49EF07F0361C36
:100EA000386E371C396E38502216395023163D2AB9
:100EB000030E3D645EEF07F060EF07F00FEF07F001
:100EC0003E2A020E3E6467EF07F069EF07F0D8EFA5
:100ED00006F02250201807E123502118D8A473EF00
:100EE00007F075EF07F078EF07F026067EEF07F0C2
:100EF0000A0E266E22C020F023C021F02650D8A46E
:100F000084EF07F086EF07F08AEF07F020C024F0A7
:100F100021C025F03AC083FF000E956E1200000E2E
:100F2000956E000E366E020E356E000E386E000E97
:100F3000376EABEC05F0000E366E030E356E000E0C
:100F4000386E000E376EABEC05F0000E366E040EF8
:100F5000356E000E386E000E376EABEC05F0000EED
:100F6000366E050E356E000E386E000E376EABEC29
:100F700005F0000E836E19EF08F0010E2B24F66EBB
:100F8000F76A060EF7220800F5CF83FF000E366ED3
:100F9000020E356E000E386E010E376EABEC05F0AA
:100FA000010E2C6E36EF08F0010E2A24F66EF76A59
:100FB000060EF7220800F5CF83FF000E366E030EF3
:100FC000356E000E386E010E376EABEC05F0020E7A
:100FD0002C6E36EF08F0010E2924F66EF76A060E25
:100FE000F7220800F5CF83FF000E366E040E356E33
:100FF000000E386E010E376EABEC05F0030E2C6E52
:1010000036EF08F0010E2824F66EF76A060EF72276
:101010000800F5CF83FF000E366E050E356E000E0C
:10102000386E010E376EABEC05F0000E2C6E36EF0D
:1010300008F02C503B6E3C6A3C50000AD8B423EFB9
:1010400008F015EF08F03B50000AD8B4BDEF07F0E8
:10105000010AD8B4D4EF07F0030AD8B4EBEF07F0D5
:10106000010AD8B402EF08F015EF08F012003B6E49
:101070003B04D8A43EEF08F040EF08F04CEF08F036
:10108000080E1D18D8B447EF08F049EF08F055EFE7
:1010900008F01D2A55EF08F01D50D8B452EF08F0A3
:1010A00054EF08F055EF08F01D0695CF3CF0000E08
:1010B000806E000E956E1D50D8A461EF08F063EFAE
:1010C00008F067EF08F0000E836ECDEF08F01D0406
:1010D000D8A46DEF08F06FEF08F073EF08F0800E02
:1010E000836ECDEF08F0020E1D18D8A47AEF08F039
:1010F0007CEF08F080EF08F0C00E836ECDEF08F0B3
:10110000030E1D18D8A487EF08F089EF08F08DEFC3
:1011100008F0E00E836ECDEF08F0040E1D18D8A481
:1011200094EF08F096EF08F09AEF08F0F00E836E57
:10113000CDEF08F0050E1D18D8A4A1EF08F0A3EF1D
:1011400008F0A7EF08F0F80E836ECDEF08F0060E5A
:101150001D18D8A4AEEF08F0B0EF08F0B4EF08F017
:10116000FC0E836ECDEF08F0070E1D18D8A4BBEF60
:1011700008F0BDEF08F0C1EF08F0FE0E836ECDEF72
:1011800008F0080E1D18D8A4C8EF08F0CAEF08F040
:10119000CDEF08F08368CDEF08F0010E366EF40E47
:1011A000356ED3EC0BF03CC095FF1200D2EC06F08C
:1011B00045EC0DF035501F6E1FB6E1EF08F0E3EF80
:1011C00008F0EAEF08F01FAEE8EF08F0EAEF08F0E9
:1011D00073EF09F0010E336E8FEC07F0D2EC06F0DE
:1011E000000E366E0A0E356ED3EC0BF01F50486EB3
:1011F000496A45EC0DF04850351807E1495036185A
:10120000D8A405EF09F007EF09F00FEF09F0330458
:10121000D8A40DEF09F00FEF09F0ECEF08F045EC62
:101220000DF035501F6E1FA618EF09F01AEF09F0E8
:1012300029EF09F03450D8A420EF09F022EF09F08B
:1012400026EF09F0090E346E4BEF09F034064BEF30
:1012500009F01FAE2EEF09F030EF09F040EF09F072
:10126000090E3418D8A437EF09F039EF09F03DEF33
:1012700009F0000E346E4BEF09F0342A4BEF09F001
:101280001FA045EF09F047EF09F04BEF09F0000E02
:10129000336E71EF09F0010E1CEC0BF0000E3D6E89
:1012A000010E36EC0CF0110E3D6E060E3E6E97EC04
:1012B0000BF0000E3D6E000E36EC0CF03450130DAA
:1012C000020EF3243D6E010EF4203E6E97EC0BF0FF
:1012D000030E356E345063EC0CF0000E336EECEF01
:1012E00008F028EC03F01200000E3A6E38BE7DEFD5
:1012F00009F07BEF09F083EF09F0376C381ED8B0A6
:10130000382A010E3A6E36BE8AEF09F088EF09F0EE
:1013100090EF09F0356C361ED8B0362A010E3A1A15
:10132000000E3C6E000E3B6E37503810D8B49BEF69
:1013300009F09DEF09F0C5EF09F0010E396EA5EF38
:1013400009F0D89037363836392A38AEAAEF09F086
:10135000ACEF09F0A1EF09F0D8903B363C3637509E
:10136000355C38503658D8A0B8EF09F0BAEF09F01C
:10137000BFEF09F03750355E3850365A3B80D89071
:1013800038323732392EACEF09F03A50D8B4CBEFBF
:1013900009F0CDEF09F0D1EF09F03B6C3C1ED8B05D
:1013A0003C2A3BC035F03CC036F01200000E426EC5
:1013B0003EBEDFEF09F0DDEF09F0E5EF09F03D6C2F
:1013C0003E1ED8B03E2A010E426E40BEECEF09F040
:1013D000EAEF09F0F0EF09F03F6C401ED8B0402A68
:1013E0003F504010D8B4F7EF09F0F9EF09F01DEFC6
:1013F0000AF0010E416E01EF0AF0D8903F364036F8
:10140000412A40AE06EF0AF008EF0AF0FDEF09F0BE
:101410003F503D5C40503E58D8A011EF0AF013EF0A
:101420000AF017EF0AF03F503D5E40503E5AD89008
:1014300040323F32412E08EF0AF04250D8B423EF39
:101440000AF025EF0AF029EF0AF03D6C3E1ED8B0F5
:101450003E2A3DC03DF03EC03EF0120054656D7026
:101460006F72616C000000000000000000436865BE
:101470006961206465204D616E69617300004520DB
:1014800054617264652044656D61697300000053A6
:101490006F7A696E686F00000000000000000000B5
:1014A000436967616E6100000000000000000000F9
:1014B000004369756D657320646520566F63650030
:1014C00000004578747261706F6C656900000000FF
:1014D00000000044657573206D65204C6976726567
:1014E000000000004D61726176696C686100000067
:1014F00000000000004D65646964612045786174F6
:10150000610000000000000E946E000E446E000E9C
:10151000436ED8904334D96E4434DA6E010ED92626
:10152000000EDA2243C035F044C036F0000E386EAB
:10153000130E376E03EC0DF0000E3524E16E010E34
:101540003620E26EDECFE6FFDDCFE5FF43C035F0AB
:1015500044C036F0000E386E130E376E03EC0DF0FB
:10156000020E35243B6E010E36203C6E43C035F032
:1015700044C036F0000E386E110E376E03EC0DF0DD
:10158000000E35243D6E020E36203E6EE4EC0CF06B
:10159000434A442A445009E10A0E435CD8A0D3EFE1
:1015A0000AF0D5EF0AF089EF0AF0120083EC0AF096
:1015B0005BEC0BF08FEC0CF040EC0DF00F0E1CEC24
:1015C0000BF0060E3D6E000E36EC0CF04A0E3D6E32
:1015D000060E3E6E97EC0BF0040E3D6E010E36ECDF
:1015E0000CF0430E3D6E060E3E6E97EC0BF0070EB0
:1015F000366ED00E356ED3EC0BF0010E1CEC0BF0FA
:10160000000E3D6E000E36EC0CF0220E3D6E060E06
:101610003E6E97EC0BF0000E3D6E010E36EC0CF0BA
:10162000110E3D6E060E3E6E97EC0BF0D6EC08F0F8
:101630000BEF0BF000EF00F03C6E83CF3BF0000EA1
:10164000956E000E366E220E356E000E386E000E50
:10165000376EABEC05F03CC083FF000E366E210EFA
:10166000356E000E386E010E376EABEC05F0000ED5
:10167000366E210E356E000E386E000E376EABECF6
:1016800005F03BC083FF020E3C18D8B44AEF0BF0C4
:101690004CEF0BF054EF0BF03C04D8A452EF0BF0DE
:1016A00054EF0BF058EF0BF026EC0DF05AEF0BF067
:1016B00034EC0DF01200000E366E220E356E000E68
:1016C000386E000E376E84EC04F0000E366E210E7C
:1016D000356E000E386E000E376E84EC04F0000E8E
:1016E000956E26EC0DF026EC0DF026EC0DF026ECB8
:1016F0000DF026EC0DF0380E1CEC0BF026EC0DF086
:1017000026EC0DF0380E1CEC0BF026EC0DF0380E2C
:101710001CEC0BF0380E1CEC0BF0060E1CEC0BF066
:101720000C0E1CEC0BF0010E1CEC0BF01200000E6A
:10173000416EB4EF0BF041503D243F6E000E3E2051
:10174000406E3FC0F6FF40C0F7FFF86A050EF76431
:1017500003D00800F55005D0F6CFE9FFF7CFEAFF38
:10176000EF50BAEC0CF0412A41503D243F6E000E80
:101770003E20406E3FC0F6FF40C0F7FFF86A050EFE
:10178000F76403D00800F55005D0F6CFE9FFF7CF96
:10179000EAFFEF500009D8A4D0EF0BF0D2EF0BF026
:1017A0009BEF0BF01200000E386E000E376EF9EF53
:1017B0000BF0000E396E280E3964E1EF0BF0E3EF09
:1017C0000BF0E5EF0BF0F7EF0BF0000E3A6E020EA8
:1017D0003A64EDEF0BF0EFEF0BF0F1EF0BF0F4EFFD
:1017E0000BF03A2AE7EF0BF0392ADBEF0BF0374A20
:1017F000382A3550375C36503858D8A002EF0CF0F4
:1018000004EF0CF0D9EF0BF012005C0EF66E140E24
:10181000F76E000EF86E02EE00F010EEAAF009006E
:10182000F5CFEEFFE550E150FAE12C0EF66E1A0E00
:10183000F76E000EF86E00EE01F010EE1FF00900DA
:10184000F5CFEEFFE550E150FAE101EE00F0BE0EFB
:10185000EE6AE806FDE100EE20F0150EEE6AE806FD
:10186000FDE1000EF86E0001D6EF0AF03E6E000EAC
:101870003F6E3E50D8A43FEF0CF041EF0CF044EF28
:101880000CF03D50800F3F6E3E04D8A44AEF0CF0A0
:101890004CEF0CF057EF0CF03F04D8B452EF0CF0C3
:1018A00054EF0CF057EF0CF03D50C00F3F6E0F0E91
:1018B0003D645DEF0CF05FEF0CF05FEF0CF03F501C
:1018C0001CEC0BF01200366E3550D8A46AEF0CF009
:1018D0006CEF0CF06EEF0CF036C02BF03504D8A492
:1018E00074EF0CF076EF0CF078EF0CF036C02AF0C5
:1018F000020E3518D8A47FEF0CF081EF0CF083EFC7
:101900000CF036C029F0030E3518D8A48AEF0CF07D
:101910008CEF0CF08EEF0CF036C028F01200000EA9
:10192000366E020E356E000E386E000E376E84EC89
:1019300004F0000E366E030E356E000E386E000E8B
:10194000376E84EC04F0000E366E040E356E000E19
:10195000386E000E376E84EC04F0000E366E050E05
:10196000356E000E386E000E376E84EC04F0000EFB
:10197000956E12003B6E83CF3CF0000E956E000E0C
:10198000366E220E356E000E386E010E376EABECE1
:1019900005F03BC083FF000E366E210E356E000E43
:1019A000386E010E376EABEC05F0000E366E210E70
:1019B000356E000E386E000E376EABEC05F03CC095
:1019C00083FF34EC0DF012003DC03FF03EC040F00C
:1019D0003BC041F03CC042F03FC0D9FF40C0DAFFFD
:1019E0003F4A402A41C0E1FF42C0E2FF414A422A49
:1019F000DFCFE7FFE750D8A400EF0DF002EF0DF0C6
:101A0000ECEF0CF0120035503702F3CF39F0F4CF81
:101A10003AF035503802F3503A2636503702F35038
:101A20003A2639C035F03AC036F0120046000F00B1
:101A300078003C000A00280014001E008C000A00F8
:0B1A40000A0704010008050203011062
:101A4C00000E366E34EC0DF0362A310E366431EF62
:101A5C000DF033EF0DF028EF0DF01200000E356E87
:101A6C00352A180E35643DEF0DF03FEF0DF036EFD3
:101A7C000DF01200070E93160F0E9512120024C0D3
:081A8C0035F025C036F0120010
:020000040020DA
:08000000FFFFFFFFFFFFFFFF00
:020000040030CA
:0E000000FF027100FF8380FF0FC00FE00F4072
:00000001FF
