:020000040000FA
:040000002DEF0BF0E5
:10060000003F065B4F666D7D077F6F777C395E79B3
:10061000713C2D28312920282A2920202832292DF3
:100620003E004573636F6C68612061206D7573696E
:100630006361002B2831292020282A2920202832F4
:0F064000292D00506C61796572004D5033000018
:1006500020BE36EF03F0205007E1080E1F5CD8B033
:1006600034EF03F036EF03F060EF03F02150221077
:10067000D8B43DEF03F03FEF03F04FEF03F01FC09E
:1006800023F0010E246E232A48EF03F0D89024367D
:10069000232E46EF03F0245092124EEF04F01FC0B9
:1006A00023F0010E246E232A58EF03F0D89024364D
:1006B000232E56EF03F02450FF0A92164EEF04F05B
:1006C00020BE6EEF03F0205007E1100E1F5CD8B083
:1006D0006CEF03F06EEF03F09CEF03F0215022105B
:1006E000D8B475EF03F077EF03F089EF03F01FC084
:1006F00023F0F80E2326010E246E232A82EF03F046
:10070000D8902436232E80EF03F0245093124EEF1E
:1007100004F01FC023F0F80E2326010E246E232AB6
:1007200094EF03F0D8902436232E92EF03F0245058
:10073000FF0A93164EEF04F020BEAAEF03F02050FC
:1007400007E1180E1F5CD8B0A8EF03F0AAEF03F082
:10075000D8EF03F021502210D8B4B1EF03F0B3EF7B
:1007600003F0C5EF03F01FC023F0F00E2326010EA7
:10077000246E232ABEEF03F0D8902436232EBCEF3C
:1007800003F0245094124EEF04F01FC023F0F00E3B
:100790002326010E246E232AD0EF03F0D8902436AE
:1007A000232ECEEF03F02450FF0A94164EEF04F0F0
:1007B00020BEE6EF03F0205007E1200E1F5CD8B00A
:1007C000E4EF03F0E6EF03F014EF04F02150221001
:1007D000D8B4EDEF03F0EFEF03F001EF04F01FC02A
:1007E00023F0E80E2326010E246E232AFAEF03F0ED
:1007F000D8902436232EF8EF03F0245095124EEFB4
:1008000004F01FC023F0E80E2326010E246E232AD5
:100810000CEF04F0D8902436232E0AEF04F0245075
:10082000FF0A95164EEF04F020BE22EF04F0205090
:1008300007E1280E1F5CD8B020EF04F022EF04F08F
:100840004EEF04F021502210D8B429EF04F02BEF22
:1008500004F03DEF04F01FC023F0E00E2326010E4C
:10086000246E232A36EF04F0D8902436232E34EF5A
:1008700004F0245096124EEF04F01FC023F0E00E57
:100880002326010E246E232A48EF04F0D890243644
:10089000232E46EF04F02450FF0A9616120020BEC5
:1008A0005DEF04F0205007E1080E1F5CD8B05BEF4D
:1008B00004F05DEF04F087EF04F021502210D8B46B
:1008C00064EF04F066EF04F076EF04F01FC023F04D
:1008D000010E246E232A6FEF04F0D8902436232EC5
:1008E0006DEF04F02450801275EF05F01FC023F067
:1008F000010E246E232A7FEF04F0D8902436232E95
:100900007DEF04F02450FF0A801675EF05F020BE3D
:1009100095EF04F0205007E1100E1F5CD8B093EF64
:1009200004F095EF04F0C3EF04F0F80E1F26FF0E5D
:10093000202221502210D8B4A0EF04F0A2EF04F03E
:10094000B2EF04F01FC023F0010E246E232AABEF98
:1009500004F0D8902436232EA9EF04F024508112FD
:1009600075EF05F01FC023F0010E246E232ABBEFA4
:1009700004F0D8902436232EB9EF04F02450FF0A57
:10098000811675EF05F020BED1EF04F0205007E18D
:10099000180E1F5CD8B0CFEF04F0D1EF04F0FFEFDA
:1009A00004F0F00E1F26FF0E202221502210D8B492
:1009B000DCEF04F0DEEF04F0EEEF04F01FC023F0F4
:1009C000010E246E232AE7EF04F0D8902436232E5C
:1009D000E5EF04F02450821275EF05F01FC023F0FC
:1009E000010E246E232AF7EF04F0D8902436232E2C
:1009F000F5EF04F02450FF0A821675EF05F020BED3
:100A00000DEF05F0205007E1200E1F5CD8B00BEF72
:100A100005F00DEF05F03BEF05F0E80E1F26FF0E89
:100A2000202221502210D8B418EF05F01AEF05F05B
:100A30002AEF05F01FC023F0010E246E232A23EFB6
:100A400005F0D8902436232E21EF05F02450831290
:100A500075EF05F01FC023F0010E246E232A33EF3B
:100A600005F0D8902436232E31EF05F02450FF0AEC
:100A7000831675EF05F020BE49EF05F0205007E121
:100A8000280E1F5CD8B047EF05F049EF05F075EF71
:100A900005F0E00E1F26FF0E202221502210D8B4B0
:100AA00054EF05F056EF05F066EF05F01FC023F098
:100AB000010E246E232A5FEF05F0D8902436232EF2
:100AC0005DEF05F02450841275EF05F01FC023F090
:100AD000010E246E232A6FEF05F0D8902436232EC2
:100AE0006DEF05F02450FF0A84161200010E44EC4D
:100AF0000AF0000E276E000E5EEC0BF04B50130D4B
:100B0000020EF324276E010EF420286EBFEC0AF0CB
:100B1000000E276E010E5EEC0BF0330E276E060EF4
:100B2000286EBFEC0AF04B50130D000EF324D96E63
:100B3000010EF420DA6EDF50486E92EF06F0000EE0
:100B4000226E3C0E216E48C01FF0206A9EEC08F019
:100B50001FC027F020C028F0000E2A6E0A0E296E52
:100B600000EC09F02750476E000E226E3C0E216EFD
:100B700048C01FF0206A9EEC08F01FC02FF020C074
:100B800030F02FC01FF030C020F0000E226E0A0E91
:100B9000216E9EEC08F01F50466E000E2A6E3C0E31
:100BA000296E48C027F0286A00EC09F027C031F010
:100BB00028C032F031C027F032C028F0000E2A6E73
:100BC0000A0E296E00EC09F02750456E000E2A6EC1
:100BD0003C0E296E48C027F0286A00EC09F027C0B7
:100BE0001FF028C020F0000E226E0A0E216E9EEC2F
:100BF00008F01F50446E000E1F6E46508BEC0BF039
:100C0000010E1F6E47508BEC0BF0020E1F6E44500E
:100C10008BEC0BF0030E1F6E45508BEC0BF0000EAF
:100C2000336E58EC07F0000E206E0A0E1F6EFBECC0
:100C30000AF09BEC06F06CEC0CF01F501E6E1EB61A
:100C400024EF06F026EF06F034EF06F01EBE2BEF81
:100C500006F02DEF06F034EF06F01EA032EF06F09E
:100C600034EF06F080EF06F0010E496E9BEC06F0C3
:100C70006CEC0CF01F501E6E1E502D6E2E6A6CEC2C
:100C80000CF02D501F1807E12E502018D8A44BEF60
:100C900006F04DEF06F055EF06F04904D8A453EFE7
:100CA00006F055EF06F036EF06F01EA65AEF06F0F6
:100CB0005CEF06F05EEF06F080EF06F01EAE63EF2D
:100CC00006F065EF06F067EF06F080EF06F01EA075
:100CD0006CEF06F06EEF06F07EEF06F01D50D8A424
:100CE00074EF06F076EF06F07AEF06F0010E1D6E57
:100CF00080EF06F0000E1D6E80EF06F036EF06F076
:100D0000332A630E336487EF06F089EF06F011EFA4
:100D100006F01D50D8A48FEF06F091EF06F092EF89
:100D200006F048064850D8A498EF06F09AEF06F06F
:100D30009FEF05F0120083CF24F00F0E9512000EE6
:100D4000286EF80E931628C01FF0010E206E1F2A81
:100D5000ACEF06F0D89020361F2EAAEF06F02050F8
:100D60009312070E811228C01FF0010E206E1F2A59
:100D7000BCEF06F0D89020361F2EBAEF06F02050B8
:100D8000FF0A8116000E266E000E256E254A262AC1
:100D900026BED4EF06F0265009E10A0E255CD8A045
:100DA000D4EF06F0D6EF06F0C6EF06F0000E276E81
:100DB00027C01FF0010E206E1F2AE1EF06F0D89029
:100DC00020361F2EDFEF06F0205083140009D8A430
:100DD000ECEF06F0EEEF06F006EF07F02850040DFA
:100DE000F35027241F6E010E206E000E216E1F2A65
:100DF000FDEF06F0D890203621361F2EFAEF06F0D0
:100E0000205038122150391220EF07F02850040DDD
:100E1000F35027241F6E010E206E000E216E1F2A34
:100E200015EF07F0D890203621361F2E12EF07F06D
:100E3000201C226E211C236E225038162350391696
:100E4000272A030E276427EF07F029EF07F0D8EFD2
:100E500006F0282A020E286430EF07F032EF07F080
:100E6000A1EF06F03850361807E139503718D8A4EA
:100E70003CEF07F03EEF07F041EF07F03C0647EF8D
:100E800007F00A0E3C6E38C036F039C037F03C50DF
:100E9000D8A44DEF07F04FEF07F053EF07F036C03F
:100EA0003AF037C03BF024C083FF000E956E12006D
:100EB000000E956E000E206E020E1F6E000E226E4A
:100EC000000E216E4FEC04F0000E206E030E1F6E1C
:100ED000000E226E000E216E4FEC04F0000E206E0C
:100EE000040E1F6E000E226E000E216E4FEC04F0F9
:100EF000000E206E050E1F6E000E226E000E216E7B
:100F00004FEC04F0000E836EE2EF07F0010E412477
:100F1000F66EF76A060EF7220800F5CF83FF000E83
:100F2000206E020E1F6E000E226E010E216E4FEC1F
:100F300004F0010E426EFFEF07F0010E4024F66E42
:100F4000F76A060EF7220800F5CF83FF000E206E29
:100F5000030E1F6E000E226E010E216E4FEC04F088
:100F6000020E426EFFEF07F0010E3F24F66EF76AA5
:100F7000060EF7220800F5CF83FF000E206E040E48
:100F80001F6E000E226E010E216E4FEC04F0030E58
:100F9000426EFFEF07F0010E3E24F66EF76A060E72
:100FA000F7220800F5CF83FF000E206E050E1F6E9E
:100FB000000E226E010E216E4FEC04F0000E426E08
:100FC000FFEF07F04250256E266A2650000AD8B47B
:100FD000ECEF07F0DEEF07F02550000AD8B486EFFB
:100FE00007F0010AD8B49DEF07F0030AD8B4B4EFB4
:100FF00007F0010AD8B4CBEF07F0DEEF07F01200DC
:101000009BEC06F06CEC0CF01F501E6E1EB60BEF46
:1010100008F00DEF08F014EF08F01EAE12EF08F024
:1010200014EF08F09DEF08F0010E496E58EC07F040
:101030009BEC06F0000E206E0A0E1F6EFBEC0AF011
:101040001E50346E356A6CEC0CF034501F1807E1FA
:1010500035502018D8A42FEF08F031EF08F039EF01
:1010600008F04904D8A437EF08F039EF08F016EF7C
:1010700008F06CEC0CF01F501E6E1EA642EF08F03C
:1010800044EF08F053EF08F04B50D8A44AEF08F0B3
:101090004CEF08F050EF08F0090E4B6E75EF08F0BA
:1010A0004B0675EF08F01EAE58EF08F05AEF08F047
:1010B0006AEF08F0090E4B18D8A461EF08F063EF4F
:1010C00008F067EF08F0000E4B6E75EF08F04B2A42
:1010D00075EF08F01EA06FEF08F071EF08F075EFE4
:1010E00008F0000E496E9BEF08F0010E44EC0AF088
:1010F000000E276E010E5EEC0BF0110E276E060E31
:10110000286EBFEC0AF0000E276E000E5EEC0BF0AE
:101110004B50130D020EF324276E010EF420286E9F
:10112000BFEC0AF0030E1F6E4B508BEC0BF0000E61
:10113000496E16EF08F076EC05F01200000E246EF2
:1011400022BEA7EF08F0A5EF08F0ADEF08F0216C84
:10115000221ED8B0222A010E246E20BEB4EF08F061
:10116000B2EF08F0BAEF08F01F6C201ED8B0202AAA
:10117000010E241A000E266E000E256E215022103C
:10118000D8B4C5EF08F0C7EF08F0EFEF08F0010E94
:10119000236ECFEF08F0D89021362236232A22AED4
:1011A000D4EF08F0D6EF08F0CBEF08F0D890253652
:1011B000263621501F5C22502058D8A0E2EF08F0BC
:1011C000E4EF08F0E9EF08F021501F5E2250205AAA
:1011D0002580D89022322132232ED6EF08F02450D9
:1011E000D8B4F5EF08F0F7EF08F0FBEF08F0256C46
:1011F000261ED8B0262A25C01FF026C020F01200D7
:10120000000E2C6E28BE09EF09F007EF09F00FEF72
:1012100009F0276C281ED8B0282A010E2C6E2ABE91
:1012200016EF09F014EF09F01AEF09F0296C2A1EE5
:10123000D8B02A2A29502A10D8B421EF09F023EF78
:1012400009F047EF09F0010E2B6E2BEF09F0D89053
:1012500029362A362B2A2AAE30EF09F032EF09F070
:1012600027EF09F02950275C2A502858D8A03BEFD7
:1012700009F03DEF09F041EF09F02950275E2A50AF
:10128000285AD8902A3229322B2E32EF09F02C50CE
:10129000D8B44DEF09F04FEF09F053EF09F0276C88
:1012A000281ED8B0282A27C027F028C028F012000E
:1012B000457374616D6F73205669766F730000001B
:1012C000004368656961206465204D616E696173E2
:1012D0000000452054617264652044656D61697346
:1012E000000000536F7A696E686F00000000000014
:1012F00000000000436967616E61000000000000AB
:1013000000000000004369756D6573206465205618
:101310006F63650000004578747261706F6C656979
:101320000000000000000044657573206D65204CCE
:1013300069767265000000004D61726176696C68C3
:101340006100000000000000004D656469646120D8
:1013500045786174610000000000000E2E6E000EE2
:101360002D6ED8902D34D96E2E34DA6E010ED9261A
:10137000000EDA222DC01FF02EC020F0000E226ECB
:10138000130E216E2BEC0CF0000E1F24E16E010EEB
:101390002020E26EDECFE6FFDDCFE5FF2DC01FF09F
:1013A0002EC020F0000E226E130E216E2BEC0CF0DE
:1013B000020E1F24256E010E2020266E2DC01FF068
:1013C0002EC020F0000E226E110E216E2BEC0CF0C0
:1013D000000E1F24276E020E2020286E0CEC0CF04D
:1013E0002D4A2E2A2E5009E10A0E2D5CD8A0FBEFC3
:1013F00009F0FDEF09F0B1EF09F01200ADEC09F0D2
:1014000083EC0AF0B7EC0BF067EC0CF00F0E44EC39
:101410000AF0060E276E000E5EEC0BF04A0E276EE9
:10142000060E286EBFEC0AF0060E276E010E5EEC6B
:101430000BF0430E276E060E286EBFEC0AF0070E67
:10144000206ED00E1F6EFBEC0AF0010E44EC0AF089
:10145000000E276E000E5EEC0BF0220E276E060EBD
:10146000286EBFEC0AF0000E276E010E5EEC0BF04A
:10147000110E276E060E286EBFEC0AF000EC08F085
:1014800033EF0AF000EF00F0266E83CF25F0000E58
:10149000956E000E206E220E1F6E000E226E000E44
:1014A000216E4FEC04F026C083FF000E206E210E4B
:1014B0001F6E000E226E010E216E4FEC04F0000E26
:1014C000206E210E1F6E000E226E000E216E4FEC5C
:1014D00004F025C083FF020E2618D8B472EF0AF07C
:1014E00074EF0AF07CEF0AF02604D8A47AEF0AF031
:1014F0007CEF0AF080EF0AF04DEC0CF082EF0AF07E
:101500005BEC0CF01200000E206E220E1F6E000E1F
:10151000226E000E216E28EC03F0000E206E210ECC
:101520001F6E000E226E000E216E28EC03F0000EDE
:10153000956E4DEC0CF04DEC0CF04DEC0CF04DECD0
:101540000CF04DEC0CF0380E44EC0AF04DEC0CF0C5
:101550004DEC0CF0380E44EC0AF04DEC0CF0380E6B
:1015600044EC0AF0380E44EC0AF0060E44EC0AF0A3
:101570000C0E44EC0AF0010E44EC0AF01200000ECE
:101580002B6EDCEF0AF02B502724296E000E28204A
:101590002A6E29C0F6FF2AC0F7FFF86A050EF76425
:1015A00003D00800F55005D0F6CFE9FFF7CFEAFFEA
:1015B000EF50E2EC0BF02B2A2B502724296E000E63
:1015C00028202A6E29C0F6FF2AC0F7FFF86A050E08
:1015D000F76403D00800F55005D0F6CFE9FFF7CF48
:1015E000EAFFEF500009D8A4F8EF0AF0FAEF0AF08A
:1015F000C3EF0AF01200000E226E000E216E21EFE2
:101600000BF0000E236E280E236409EF0BF00BEF96
:101610000BF00DEF0BF01FEF0BF0000E246E020E1F
:10162000246415EF0BF017EF0BF019EF0BF01CEF24
:101630000BF0242A0FEF0BF0232A03EF0BF0214AC3
:10164000222A1F50215C20502258D8A02AEF0BF0EC
:101650002CEF0BF001EF0BF01200B00EF66E120E35
:10166000F76E000EF86E02EE00F010EEAAF0090020
:10167000F5CFEEFFE550E150FAE17C0EF66E180E64
:10168000F76E000EF86E00EE01F010EE1EF009008D
:10169000F5CFEEFFE550E150FAE101EE00F0BE0EAD
:1016A000EE6AE806FDE100EE36F0160EEE6AE80698
:1016B000FDE1000EF86E0001FEEF09F0286E000E4D
:1016C000296E2850D8A467EF0BF069EF0BF06CEF90
:1016D0000BF02750800F296E2804D8A472EF0BF06E
:1016E00074EF0BF07FEF0BF02904D8B47AEF0BF016
:1016F0007CEF0BF07FEF0BF02750C00F296E0F0E21
:10170000276485EF0BF087EF0BF087EF0BF0295084
:1017100044EC0AF01200206E1F50D8A492EF0BF098
:1017200094EF0BF096EF0BF020C041F01F04D8A40B
:101730009CEF0BF09EEF0BF0A0EF0BF020C040F001
:10174000020E1F18D8A4A7EF0BF0A9EF0BF0ABEF18
:101750000BF020C03FF0030E1F18D8A4B2EF0BF01F
:10176000B4EF0BF0B6EF0BF020C03EF01200000E0D
:10177000206E020E1F6E000E226E000E216E28ECEF
:1017800003F0000E206E030E1F6E000E226E000E80
:10179000216E28EC03F0000E206E040E1F6E000E6A
:1017A000226E000E216E28EC03F0000E206E050E56
:1017B0001F6E000E226E000E216E28EC03F0000E4C
:1017C000956E1200256E83CF26F0000E956E000EEA
:1017D000206E220E1F6E000E226E010E216E4FEC47
:1017E00004F025C083FF000E206E210E1F6E000E38
:1017F000226E010E216E4FEC04F0000E206E210EC1
:101800001F6E000E226E000E216E4FEC04F026C0FB
:1018100083FF5BEC0CF0120027C029F028C02AF0EF
:1018200025C02BF026C02CF029C0D9FF2AC0DAFF32
:10183000294A2A2A2BC0E1FF2CC0E2FF2B4A2C2A7E
:10184000DFCFE7FFE750D8A428EF0CF02AEF0CF029
:1018500014EF0CF012001F502102F3CF23F0F4CF4D
:1018600024F01F502202F350242620502102F3506E
:10187000242623C01FF024C020F012000807080708
:10188000B400B400B400B400B400B400B400B400B8
:101890000A070401000805020110000E206E5BEC2F
:1018A0000CF0202A310E206458EF0CF05AEF0CF0A7
:1018B0004FEF0CF01200000E1F6E1F2A180E1F644F
:1018C00064EF0CF066EF0CF05DEF0CF01200070E09
:1018D00093160F0E951212003AC01FF03BC020F075
:0218E0001200F4
:020000040020DA
:08000000FFFFFFFFFFFFFFFF00
:020000040030CA
:0E000000FF027100FF8380FF0FC00FE00F4072
:00000001FF
