:020000040000FA
:0400000037EF0BF0DB
:10060000003F065B4F666D7D077F6F777C395E79B3
:10061000713C2D28312920282A2920202832292DF3
:100620003E004573636F6C68612061206D7573696E
:100630006361002D2831292020282A2920202832F2
:0F064000292B00506C61796572004D503300001A
:10065000010E4EEC0AF0000E276E000E68EC0BF057
:100660004B50130D020EF324276E010EF420286E5A
:10067000C9EC0AF0000E276E010E68EC0BF0330E89
:10068000276E060E286EC9EC0AF04B50130D000EB3
:10069000F324D96E010EF420DA6EDF50486E44EF79
:1006A00004F0000E226E3C0E216E48C01FF0206A3E
:1006B000A6EC08F01FC027F020C028F0000E2A6E1C
:1006C0000A0E296E08EC09F02750476E000E226EC4
:1006D0003C0E216E48C01FF0206AA6EC08F01FC037
:1006E0002FF020C030F02FC01FF030C020F0000EDF
:1006F000226E0A0E216EA6EC08F01F50466E000E08
:100700002A6E3C0E296E48C027F0286A08EC09F0D2
:1007100027C031F028C032F031C027F032C028F0B5
:10072000000E2A6E0A0E296E08EC09F02750456E5D
:10073000000E2A6E3C0E296E48C027F0286A08EC8D
:1007400009F027C01FF028C020F0000E226E0A0E0C
:10075000216EA6EC08F01F50446E000E1F6E46502E
:1007600095EC0BF0010E1F6E475095EC0BF0020E4E
:100770001F6E445095EC0BF0030E1F6E455095EC28
:100780000BF0000E336E60EC07F0000E206E0A0EC8
:100790001F6E05EC0BF0A3EC06F076EC0CF01F508E
:1007A0001E6E1EB6D6EF03F0D8EF03F0E6EF03F0AF
:1007B0001EBEDDEF03F0DFEF03F0E6EF03F01EA057
:1007C000E4EF03F0E6EF03F032EF04F0010E496EC0
:1007D000A3EC06F076EC0CF01F501E6E1E502D6E32
:1007E0002E6A76EC0CF02D501F1807E12E502018C1
:1007F000D8A4FDEF03F0FFEF03F007EF04F0490486
:10080000D8A405EF04F007EF04F0E8EF03F01EA60C
:100810000CEF04F00EEF04F010EF04F032EF04F0F0
:100820001EAE15EF04F017EF04F019EF04F032EFED
:1008300004F01EA01EEF04F020EF04F030EF04F0EF
:100840001D50D8A426EF04F028EF04F02CEF04F09C
:10085000010E1D6E32EF04F0000E1D6E32EF04F03B
:10086000E8EF03F0332A630E336439EF04F03BEF13
:1008700004F0C3EF03F01D50D8A441EF04F043EFA0
:1008800004F044EF04F048064850D8A44AEF04F0BE
:100890004CEF04F051EF03F09482010E206EF40E41
:1008A0001F6E05EC0BF09480120020BE63EF04F085
:1008B000205007E1080E1F5CD8B061EF04F063EF31
:1008C00004F08DEF04F021502210D8B46AEF04F048
:1008D0006CEF04F07CEF04F01FC023F0010E246ED7
:1008E000232A75EF04F0D8902436232E73EF04F0FA
:1008F000245092127BEF05F01FC023F0010E246EEE
:10090000232A85EF04F0D8902436232E83EF04F0B9
:100910002450FF0A92167BEF05F020BE9BEF04F0F7
:10092000205007E1100E1F5CD8B099EF04F09BEF48
:1009300004F0C9EF04F021502210D8B4A2EF04F063
:10094000A4EF04F0B6EF04F01FC023F0F80E232646
:10095000010E246E232AAFEF04F0D8902436232E04
:10096000ADEF04F0245093127BEF05F01FC023F08D
:10097000F80E2326010E246E232AC1EF04F0D8902E
:100980002436232EBFEF04F02450FF0A93167BEF8A
:1009900005F020BED7EF04F0205007E1180E1F5CD1
:1009A000D8B0D5EF04F0D7EF04F005EF05F02150F3
:1009B0002210D8B4DEEF04F0E0EF04F0F2EF04F020
:1009C0001FC023F0F00E2326010E246E232AEBEF26
:1009D00004F0D8902436232EE9EF04F0245094122A
:1009E0007BEF05F01FC023F0F00E2326010E246ECE
:1009F000232AFDEF04F0D8902436232EFBEF04F0D9
:100A00002450FF0A94167BEF05F020BE13EF05F08B
:100A1000205007E1200E1F5CD8B011EF05F013EF56
:100A200005F041EF05F021502210D8B41AEF05F07F
:100A30001CEF05F02EEF05F01FC023F0E80E232673
:100A4000010E246E232A27EF05F0D8902436232E9A
:100A500025EF05F0245095127BEF05F01FC023F021
:100A6000E80E2326010E246E232A39EF05F0D890D4
:100A70002436232E37EF05F02450FF0A95167BEF1E
:100A800005F020BE4FEF05F0205007E1280E1F5C57
:100A9000D8B04DEF05F04FEF05F07BEF05F021509A
:100AA0002210D8B456EF05F058EF05F06AEF05F0C4
:100AB0001FC023F0E00E2326010E246E232A63EFCD
:100AC00005F0D8902436232E61EF05F024509612BD
:100AD0007BEF05F01FC023F0E00E2326010E246EED
:100AE000232A75EF05F0D8902436232E73EF05F0F6
:100AF0002450FF0A9616120020BE8AEF05F02050FF
:100B000007E1080E1F5CD8B088EF05F08AEF05F00A
:100B1000B4EF05F021502210D8B491EF05F093EF17
:100B200005F0A3EF05F01FC023F0010E246E232A69
:100B30009CEF05F0D8902436232E9AEF05F0245030
:100B40008012A2EF06F01FC023F0010E246E232AAC
:100B5000ACEF05F0D8902436232EAAEF05F02450F0
:100B6000FF0A8016A2EF06F020BEC2EF05F020506B
:100B700007E1100E1F5CD8B0C0EF05F0C2EF05F022
:100B8000F0EF05F0F80E1F26FF0E20222150221054
:100B9000D8B4CDEF05F0CFEF05F0DFEF05F01FC0C3
:100BA00023F0010E246E232AD8EF05F0D8902436C6
:100BB000232ED6EF05F024508112A2EF06F01FC0BD
:100BC00023F0010E246E232AE8EF05F0D890243696
:100BD000232EE6EF05F02450FF0A8116A2EF06F05F
:100BE00020BEFEEF05F0205007E1180E1F5CD8B0C4
:100BF000FCEF05F0FEEF05F02CEF06F0F00E1F26DF
:100C0000FF0E202221502210D8B409EF06F00BEF7E
:100C100006F01BEF06F01FC023F0010E246E232AFE
:100C200014EF06F0D8902436232E12EF06F024504D
:100C30008212A2EF06F01FC023F0010E246E232AB9
:100C400024EF06F0D8902436232E22EF06F024500D
:100C5000FF0A8216A2EF06F020BE3AEF06F02050FF
:100C600007E1200E1F5CD8B038EF06F03AEF06F02F
:100C700068EF06F0E80E1F26FF0E202221502210FA
:100C8000D8B445EF06F047EF06F057EF06F01FC067
:100C900023F0010E246E232A50EF06F0D89024365C
:100CA000232E4EEF06F024508312A2EF06F01FC051
:100CB00023F0010E246E232A60EF06F0D89024362C
:100CC000232E5EEF06F02450FF0A8316A2EF06F0F3
:100CD00020BE76EF06F0205007E1280E1F5CD8B04A
:100CE00074EF06F076EF06F0A2EF06F0E00E1F2696
:100CF000FF0E202221502210D8B481EF06F083EF9E
:100D000006F093EF06F01FC023F0010E246E232A95
:100D10008CEF06F0D8902436232E8AEF06F024506C
:100D20008412A2EF06F01FC023F0010E246E232AC6
:100D30009CEF06F0D8902436232E9AEF06F024502C
:100D4000FF0A8416120083CF24F00F0E9512000EB6
:100D5000286EF80E931628C01FF0010E206E1F2A71
:100D6000B4EF06F0D89020361F2EB2EF06F02050D8
:100D70009312070E811228C01FF0010E206E1F2A49
:100D8000C4EF06F0D89020361F2EC2EF06F0205098
:100D9000FF0A8116000E266E000E256E254A262AB1
:100DA00026BEDCEF06F0265009E10A0E255CD8A02D
:100DB000DCEF06F0DEEF06F0CEEF06F0000E276E59
:100DC00027C01FF0010E206E1F2AE9EF06F0D89011
:100DD00020361F2EE7EF06F0205083140009D8A418
:100DE000F4EF06F0F6EF06F00EEF07F02850040DD2
:100DF000F35027241F6E010E206E000E216E1F2A55
:100E000005EF07F0D890203621361F2E02EF07F0AD
:100E1000205038122150391228EF07F02850040DC5
:100E2000F35027241F6E010E206E000E216E1F2A24
:100E30001DEF07F0D890203621361F2E1AEF07F04D
:100E4000201C226E211C236E225038162350391686
:100E5000272A030E27642FEF07F031EF07F0E0EFAA
:100E600006F0282A020E286438EF07F03AEF07F060
:100E7000A9EF06F03850361807E139503718D8A4D2
:100E800044EF07F046EF07F049EF07F03C064FEF5D
:100E900007F00A0E3C6E38C036F039C037F03C50CF
:100EA000D8A455EF07F057EF07F05BEF07F036C017
:100EB0003AF037C03BF024C083FF000E956E12005D
:100EC000000E956E000E206E020E1F6E000E226E3A
:100ED000000E216E7CEC05F0000E206E030E1F6EDE
:100EE000000E226E000E216E7CEC05F0000E206ECE
:100EF000040E1F6E000E226E000E216E7CEC05F0BB
:100F0000000E206E050E1F6E000E226E000E216E6A
:100F10007CEC05F0000E836EEAEF07F0010E412431
:100F2000F66EF76A060EF7220800F5CF83FF000E73
:100F3000206E020E1F6E000E226E010E216E7CECE2
:100F400005F0010E426E07EF08F0010E4024F66E28
:100F5000F76A060EF7220800F5CF83FF000E206E19
:100F6000030E1F6E000E226E010E216E7CEC05F04A
:100F7000020E426E07EF08F0010E3F24F66EF76A8C
:100F8000060EF7220800F5CF83FF000E206E040E38
:100F90001F6E000E226E010E216E7CEC05F0030E1A
:100FA000426E07EF08F0010E3E24F66EF76A060E59
:100FB000F7220800F5CF83FF000E206E050E1F6E8E
:100FC000000E226E010E216E7CEC05F0000E426ECA
:100FD00007EF08F04250256E266A2650000AD8B462
:100FE000F4EF07F0E6EF07F02550000AD8B48EEFD3
:100FF00007F0010AD8B4A5EF07F0030AD8B4BCEF94
:1010000007F0010AD8B4D3EF07F0E6EF07F01200BB
:10101000A3EC06F076EC0CF01F501E6E1EB613EF1C
:1010200008F015EF08F01CEF08F01EAE1AEF08F0FC
:101030001CEF08F0A5EF08F0010E496E60EC07F018
:10104000A3EC06F0000E206E0A0E1F6E05EC0BF0EE
:101050001E50346E356A76EC0CF034501F1807E1E0
:1010600035502018D8A437EF08F039EF08F041EFD9
:1010700008F04904D8A43FEF08F041EF08F01EEF54
:1010800008F076EC0CF01F501E6E1EA64AEF08F01A
:101090004CEF08F05BEF08F04B50D8A452EF08F08B
:1010A00054EF08F058EF08F0090E4B6E7DEF08F092
:1010B0004B067DEF08F01EAE60EF08F062EF08F01F
:1010C00072EF08F0090E4B18D8A469EF08F06BEF27
:1010D00008F06FEF08F0000E4B6E7DEF08F04B2A22
:1010E0007DEF08F01EA077EF08F079EF08F07DEFB4
:1010F00008F0000E496EA3EF08F0010E4EEC0AF066
:10110000000E276E010E68EC0BF0110E276E060E16
:10111000286EC9EC0AF0000E276E000E68EC0BF08A
:101120004B50130D020EF324276E010EF420286E8F
:10113000C9EC0AF0030E1F6E4B5095EC0BF0000E3D
:10114000496E1EEF08F028EC03F01200000E246E2A
:1011500022BEAFEF08F0ADEF08F0B5EF08F0216C5C
:10116000221ED8B0222A010E246E20BEBCEF08F049
:10117000BAEF08F0C2EF08F01F6C201ED8B0202A8A
:10118000010E241A000E266E000E256E215022102C
:10119000D8B4CDEF08F0CFEF08F0F7EF08F0010E6C
:1011A000236ED7EF08F0D89021362236232A22AEBC
:1011B000DCEF08F0DEEF08F0D3EF08F0D89025362A
:1011C000263621501F5C22502058D8A0EAEF08F0A4
:1011D000ECEF08F0F1EF08F021501F5E2250205A8A
:1011E0002580D89022322132232EDEEF08F02450C1
:1011F000D8B4FDEF08F0FFEF08F003EF09F0256C1D
:10120000261ED8B0262A25C01FF026C020F01200C6
:10121000000E2C6E28BE11EF09F00FEF09F017EF4A
:1012200009F0276C281ED8B0282A010E2C6E2ABE81
:101230001EEF09F01CEF09F022EF09F0296C2A1EBD
:10124000D8B02A2A29502A10D8B429EF09F02BEF58
:1012500009F04FEF09F0010E2B6E33EF09F0D89033
:1012600029362A362B2A2AAE38EF09F03AEF09F050
:101270002FEF09F02950275C2A502858D8A043EFB7
:1012800009F045EF09F049EF09F02950275E2A508F
:10129000285AD8902A3229322B2E3AEF09F02C50B6
:1012A000D8B455EF09F057EF09F05BEF09F0276C60
:1012B000281ED8B0282A27C027F028C028F01200FE
:1012C000457374616D6F73205669766F730000000B
:1012D000004368656961206465204D616E696173D2
:1012E0000000452054617264652044656D61697336
:1012F000000000536F7A696E686F00000000000004
:1013000000000000436967616E610000000000009A
:1013100000000000004369756D6573206465205608
:101320006F63650000004578747261706F6C656969
:101330000000000000000044657573206D65204CBE
:1013400069767265000000004D61726176696C68B3
:101350006100000000000000004D656469646120C8
:1013600045786174610000000000000E946E000E6C
:101370002E6E000E2D6ED8902D34D96E2E34DA6E6E
:10138000010ED926000EDA222DC01FF02EC020F04B
:10139000000E226E130E216E35EC0CF0000E1F2491
:1013A000E16E010E2020E26EDECFE6FFDDCFE5FF2D
:1013B0002DC01FF02EC020F0000E226E130E216EE5
:1013C00035EC0CF0020E1F24256E010E2020266E37
:1013D0002DC01FF02EC020F0000E226E110E216EC7
:1013E00035EC0CF0000E1F24276E020E2020286E14
:1013F00016EC0CF02D4A2E2A2E5009E10A0E2D5C17
:10140000D8A005EF0AF007EF0AF0BBEF09F01200D1
:10141000B5EC09F08DEC0AF0C1EC0BF071EC0CF0BE
:101420000F0E4EEC0AF0060E276E000E68EC0BF065
:101430004A0E276E060E286EC9EC0AF0040E276EBF
:10144000010E68EC0BF0430E276E060E286EC9ECF9
:101450000AF0070E206ED00E1F6E05EC0BF0010E89
:101460004EEC0AF0000E276E000E68EC0BF0220E18
:10147000276E060E286EC9EC0AF0000E276E010ECC
:1014800068EC0BF0110E276E060E286EC9EC0AF000
:1014900008EC08F03DEF0AF000EF00F0266E83CF75
:1014A00025F0000E956E000E206E220E1F6E000EAF
:1014B000226E000E216E7CEC05F026C083FF000E2C
:1014C000206E210E1F6E000E226E010E216E7CEC2E
:1014D00005F0000E206E210E1F6E000E226E000E13
:1014E000216E7CEC05F025C083FF020E2618D8B4CF
:1014F0007CEF0AF07EEF0AF086EF0AF02604D8A40B
:1015000084EF0AF086EF0AF08AEF0AF057EC0CF04D
:101510008CEF0AF065EC0CF01200000E206E220E2B
:101520001F6E000E226E000E216E55EC04F0000EB0
:10153000206E210E1F6E000E226E000E216E55ECE5
:1015400004F0000E956E57EC0CF057EC0CF057ECD5
:101550000CF057EC0CF057EC0CF0380E4EEC0AF097
:1015600057EC0CF057EC0CF0380E4EEC0AF057EC40
:101570000CF0380E4EEC0AF0380E4EEC0AF0060E67
:101580004EEC0AF00C0E4EEC0AF0010E4EEC0AF096
:101590001200000E2B6EE6EF0AF02B502724296E66
:1015A000000E28202A6E29C0F6FF2AC0F7FFF86A2D
:1015B000050EF76403D00800F55005D0F6CFE9FF1B
:1015C000F7CFEAFFEF50ECEC0BF02B2A2B5027243F
:1015D000296E000E28202A6E29C0F6FF2AC0F7FFC8
:1015E000F86A050EF76403D00800F55005D0F6CF71
:1015F000E9FFF7CFEAFFEF500009D8A402EF0BF0A4
:1016000004EF0BF0CDEF0AF01200000E226E000E78
:10161000216E2BEF0BF0000E236E280E236413EFC8
:101620000BF015EF0BF017EF0BF029EF0BF0000E9E
:10163000246E020E24641FEF0BF021EF0BF023EF5A
:101640000BF026EF0BF0242A19EF0BF0232A0DEFF5
:101650000BF0214A222A1F50215C20502258D8A08A
:1016600034EF0BF036EF0BF00BEF0BF01200C00E67
:10167000F66E120EF76E000EF86E02EE00F010EE2F
:10168000AAF00900F5CFEEFFE550E150FAE1900E27
:10169000F66E180EF76E000EF86E00EE01F010EE0A
:1016A0001EF00900F5CFEEFFE550E150FAE101EE42
:1016B00000F0BE0EEE6AE806FDE100EE36F0160E12
:1016C000EE6AE806FDE1000EF86E000108EF0AF090
:1016D000286E000E296E2850D8A471EF0BF073EF1E
:1016E0000BF076EF0BF02750800F296E2804D8A45A
:1016F0007CEF0BF07EEF0BF089EF0BF02904D8B4F0
:1017000084EF0BF086EF0BF089EF0BF02750C00F42
:10171000296E0F0E27648FEF0BF091EF0BF091EF16
:101720000BF029504EEC0AF01200206E1F50D8A486
:101730009CEF0BF09EEF0BF0A0EF0BF020C041F000
:101740001F04D8A4A6EF0BF0A8EF0BF0AAEF0BF044
:1017500020C040F0020E1F18D8A4B1EF0BF0B3EF79
:101760000BF0B5EF0BF020C03FF0030E1F18D8A40C
:10177000BCEF0BF0BEEF0BF0C0EF0BF020C03EF063
:101780001200000E206E020E1F6E000E226E000E62
:10179000216E55EC04F0000E206E030E1F6E000E3D
:1017A000226E000E216E55EC04F0000E206E040E29
:1017B0001F6E000E226E000E216E55EC04F0000E1E
:1017C000206E050E1F6E000E226E000E216E55EC6F
:1017D00004F0000E956E1200256E83CF26F0000EE9
:1017E000956E000E206E220E1F6E000E226E010EF0
:1017F000216E7CEC05F025C083FF000E206E210ECB
:101800001F6E000E226E010E216E7CEC05F0000EA4
:10181000206E210E1F6E000E226E000E216E7CECDB
:1018200005F026C083FF65EC0CF0120027C029F0FC
:1018300028C02AF025C02BF026C02CF029C0D9FFE3
:101840002AC0DAFF294A2A2A2BC0E1FF2CC0E2FF76
:101850002B4A2C2ADFCFE7FFE750D8A432EF0CF059
:1018600034EF0CF01EEF0CF012001F502102F3CFEA
:1018700023F0F4CF24F01F502202F35024262050EE
:101880002102F350242623C01FF024C020F01200B0
:10189000B400B400B400B400B400B400B400B400A8
:1018A000B400B4000A070401000805020110000E8C
:1018B000206E65EC0CF0202A310E206462EF0CF0F3
:1018C00064EF0CF059EF0CF01200000E1F6E1F2A8F
:1018D000180E1F646EEF0CF070EF0CF067EF0CF059
:1018E0001200070E93160F0E951212003AC01FF049
:0618F0003BC020F01200D5
:020000040020DA
:08000000FFFFFFFFFFFFFFFF00
:020000040030CA
:0E000000FF027100FF8380FF0FC00FE00F4072
:00000001FF
