:020000040000FA
:040000000FEF0DF001
:10060000003F065B4F666D7D077F6F777C395E79B3
:10061000714573636F6C68612061206D75736963E8
:1006200061003C2D28312920282A29202028322920
:100630002D3E002D2831292020282A29202028324B
:0F064000292B00506C61796572004D503300001A
:1006500051EC0EF0010EB6EC0BF0000E286E000E01
:1006600040EC0DF04B50130D020EF324286E010EDA
:10067000F420296E31EC0CF0000E286E010E40ECD7
:100680000DF0330E286E060E296E31EC0CF04B5037
:10069000130D000EF324D96E010EF420DA6EDF5034
:1006A000496E640EA7EC0CF080EF04F0000E236E90
:1006B0003C0E226E49C020F0216A0EEC0AF020C0E8
:1006C00028F021C029F0000E2B6E0A0E2A6E70EC65
:1006D0000AF02850486E000E236E3C0E226E49C070
:1006E00020F0216A0EEC0AF020C030F021C031F079
:1006F00030C020F031C021F0000E236E0A0E226EB1
:100700000EEC0AF02050476E000E2B6E3C0E2A6E47
:1007100049C028F0296A70EC0AF028C032F029C0DC
:1007200033F032C028F033C029F0000E2B6E0A0ED1
:100730002A6E70EC0AF02850466E000E2B6E3C0EAE
:100740002A6E49C028F0296A70EC0AF028C020F00F
:1007500029C021F0000E236E0A0E226E0EEC0AF064
:100760002050456E000E206E47506DEC0DF0010ECE
:10077000206E48506DEC0DF0020E206E45506DEC71
:100780000DF0030E206E46506DEC0DF0000E346E31
:10079000A1EC07F0000E216E0A0E206EDDEC0CF0CD
:1007A000E4EC06F06FEC0EF020501F6E1FA6DBEF9E
:1007B00003F0DDEF03F0F3EF03F0E7EF03F0A1EC5C
:1007C00007F0E4EC06F06FEC0EF020501F6E1FB641
:1007D000ECEF03F0EEEF03F0DFEF03F0000EE9ECD7
:1007E00008F066EF04F01FAEF8EF03F0FAEF03F045
:1007F00010EF04F004EF04F0A1EC07F0E4EC06F0D5
:100800006FEC0EF020501F6E1FBE09EF04F00BEFCF
:1008100004F0FCEF03F0010EE9EC08F066EF04F0E1
:100820001FA015EF04F017EF04F038EF04F021EFEC
:1008300004F0A1EC07F0E4EC06F06FEC0EF02050B1
:100840001F6E1FB026EF04F028EF04F019EF04F03C
:100850001E50D8A42EEF04F030EF04F034EF04F073
:10086000010E1E6E66EF04F0000E1E6E66EF04F0C1
:100870001FA83DEF04F03FEF04F066EF04F049EFEE
:1008800004F0A1EC07F0E4EC06F06FEC0EF0205061
:100890001F6E1FB84EEF04F050EF04F041EF04F06C
:1008A000000E206E000E6DEC0DF0010E206E000E9D
:1008B0006DEC0DF0020E206E000E6DEC0DF0030ECF
:1008C000206E000E6DEC0DF095EF04F0342A630EEF
:1008D00034646DEF04F06FEF04F0C8EF03F01E50C6
:1008E000D8A475EF04F077EF04F07DEF04F049062B
:1008F000640EA7EC0CF080EF04F0000EA7EC0CF0F7
:100900004950D8A486EF04F088EF04F056EF03F0C6
:10091000000E926E000EA7EC0CF09482010E216E78
:10092000F40E206EDDEC0CF09492120021BEA4EFC8
:1009300004F0215007E1080E205CD8B0A2EF04F0CB
:10094000A4EF04F0CEEF04F022502310D8B4ABEFA4
:1009500004F0ADEF04F0BDEF04F020C024F0010E70
:10096000256E242AB6EF04F0D8902536242EB4EF55
:1009700004F025509212BCEF05F020C024F0010EC7
:10098000256E242AC6EF04F0D8902536242EC4EF15
:1009900004F02550FF0A9216BCEF05F021BEDCEFF3
:1009A00004F0215007E1100E205CD8B0DAEF04F01B
:1009B000DCEF04F00AEF05F022502310D8B4E3EF87
:1009C00004F0E5EF04F0F7EF04F020C024F0F80E97
:1009D0002426010E256E242AF0EF04F0D890253647
:1009E000242EEEEF04F025509312BCEF05F020C04A
:1009F00024F0F80E2426010E256E242A02EF05F0BD
:100A0000D8902536242E00EF05F02550FF0A9316C6
:100A1000BCEF05F021BE18EF05F0215007E1180EDC
:100A2000205CD8B016EF05F018EF05F046EF05F0A2
:100A300022502310D8B41FEF05F021EF05F033EF5B
:100A400005F020C024F0F00E2426010E256E242A85
:100A50002CEF05F0D8902536242E2AEF05F02550EE
:100A60009412BCEF05F020C024F0F00E2426010EF5
:100A7000256E242A3EEF05F0D8902536242E3CEF33
:100A800005F02550FF0A9416BCEF05F021BE54EF87
:100A900005F0215007E1200E205CD8B052EF05F0A0
:100AA00054EF05F082EF05F022502310D8B45BEF2D
:100AB00005F05DEF05F06FEF05F020C024F0E80EC3
:100AC0002426010E256E242A68EF05F0D8902536DD
:100AD000242E66EF05F025509512BCEF05F020C0DE
:100AE00024F0E80E2426010E256E242A7AEF05F064
:100AF000D8902536242E78EF05F02550FF0A95165C
:100B0000BCEF05F021BE90EF05F0215007E1280E63
:100B1000205CD8B08EEF05F090EF05F0BCEF05F04B
:100B200022502310D8B497EF05F099EF05F0ABEF02
:100B300005F020C024F0E00E2426010E256E242AA4
:100B4000A4EF05F0D8902536242EA2EF05F025500D
:100B50009612BCEF05F020C024F0E00E2426010E12
:100B6000256E242AB6EF05F0D8902536242EB4EF52
:100B700005F02550FF0A9616120021BECBEF05F0B6
:100B8000215007E1080E205CD8B0C9EF05F0CBEF8B
:100B900005F0F5EF05F022502310D8B4D2EF05F0A0
:100BA000D4EF05F0E4EF05F020C024F0010E256E2F
:100BB000242ADDEF05F0D8902536242EDBEF05F052
:100BC00025508012E3EF06F020C024F0010E256EC0
:100BD000242AEDEF05F0D8902536242EEBEF05F012
:100BE0002550FF0A8016E3EF06F021BE03EF06F062
:100BF000215007E1100E205CD8B001EF06F003EFA2
:100C000006F031EF06F0F80E2026FF0E21222250CA
:100C10002310D8B40EEF06F010EF06F020EF06F028
:100C200020C024F0010E256E242A19EF06F0D8907A
:100C30002536242E17EF06F025508112E3EF06F03B
:100C400020C024F0010E256E242A29EF06F0D8904A
:100C50002536242E27EF06F02550FF0A8116E3EFF4
:100C600006F021BE3FEF06F0215007E1180E205C90
:100C7000D8B03DEF06F03FEF06F06DEF06F0F00E56
:100C80002026FF0E212222502310D8B44AEF06F06E
:100C90004CEF06F05CEF06F020C024F0010E256E4C
:100CA000242A55EF06F0D8902536242E53EF06F06F
:100CB00025508212E3EF06F020C024F0010E256ECD
:100CC000242A65EF06F0D8902536242E63EF06F02F
:100CD0002550FF0A8216E3EF06F021BE7BEF06F0F7
:100CE000215007E1200E205CD8B079EF06F07BEFB1
:100CF00006F0A9EF06F0E80E2026FF0E2122225072
:100D00002310D8B486EF06F088EF06F098EF06F0CF
:100D100020C024F0010E256E242A91EF06F0D89011
:100D20002536242E8FEF06F025508312E3EF06F0D0
:100D300020C024F0010E256E242AA1EF06F0D890E1
:100D40002536242E9FEF06F02550FF0A8316E3EF89
:100D500006F021BEB7EF06F0215007E1280E205C17
:100D6000D8B0B5EF06F0B7EF06F0E3EF06F0E00E0F
:100D70002026FF0E212222502310D8B4C2EF06F005
:100D8000C4EF06F0D4EF06F020C024F0010E256E6B
:100D9000242ACDEF06F0D8902536242ECBEF06F08E
:100DA00025508412E3EF06F020C024F0010E256EDA
:100DB000242ADDEF06F0D8902536242EDBEF06F04E
:100DC0002550FF0A8416120083CF25F00F0E9512CE
:100DD000000E296EF80E931629C020F0010E216E28
:100DE000202AF5EF06F0D8902136202EF3EF06F0FA
:100DF00021509312070E811229C020F0010E216E9E
:100E0000202A05EF07F0D8902136202E03EF07F0B7
:100E10002150FF0A8116000E276E000E266E264A0C
:100E2000272A27BE1DEF07F0275009E10A0E265C8E
:100E3000D8A01DEF07F01FEF07F00FEF07F0000E2F
:100E4000286E28C020F0010E216E202A2AEF07F01C
:100E5000D8902136202E28EF07F021508314000966
:100E6000D8A435EF07F037EF07F04FEF07F0295020
:100E7000040DF3502824206E010E216E000E226E08
:100E8000202A46EF07F0D89021362236202E43EF55
:100E900007F02150391222503A1269EF07F0295019
:100EA000040DF3502824206E010E216E000E226ED8
:100EB000202A5EEF07F0D89021362236202E5BEFF5
:100EC00007F0211C236E221C246E23503916245057
:100ED0003A16282A030E286470EF07F072EF07F025
:100EE00021EF07F0292A020E296479EF07F07BEF42
:100EF00007F0EAEF06F03950371807E13A50381892
:100F0000D8A485EF07F087EF07F08AEF07F03D06DA
:100F100090EF07F00A0E3D6E39C037F03AC038F056
:100F20003D50D8A496EF07F098EF07F09CEF07F03C
:100F300037C03BF038C03CF025C083FF000E956EF3
:100F40001200000E956E000E216E020E206E000E35
:100F5000236E000E226EBDEC05F0000E216E030E16
:100F6000206E000E236E000E226EBDEC05F0000E0A
:100F7000216E040E206E000E236E000E226EBDEC5C
:100F800005F0000E216E050E206E000E236E000E81
:100F9000226EBDEC05F0000E836E2BEF08F0010E03
:100FA0004224F66EF76A060EF7220800F5CF83FF9B
:100FB000000E216E020E206E000E236E010E226EB8
:100FC000BDEC05F0010E436E48EF08F0010E412420
:100FD000F66EF76A060EF7220800F5CF83FF000EC3
:100FE000216E030E206E000E236E010E226EBDECEC
:100FF00005F0020E436E48EF08F0010E4024F66E35
:10100000F76A060EF7220800F5CF83FF000E216E67
:10101000040E206E000E236E010E226EBDEC05F054
:10102000030E436E48EF08F0010E3F24F66EF76A98
:10103000060EF7220800F5CF83FF000E216E050E85
:10104000206E000E236E010E226EBDEC05F0000E28
:10105000436E48EF08F04350266E276A2750000A77
:10106000D8B435EF08F027EF08F02650000AD8B4BE
:10107000CFEF07F0010AD8B4E6EF07F0030AD8B4BF
:10108000FDEF07F0010AD8B414EF08F027EF08F0DD
:101090001200E4EC06F06FEC0EF020501F6EA1EC95
:1010A00007F01FB656EF08F058EF08F05FEF08F0B2
:1010B0001FAE5DEF08F05FEF08F0E8EF08F0010EFB
:1010C0004A6EA1EC07F0E4EC06F0000E216E0A0E69
:1010D000206EDDEC0CF01F50356E366A6FEC0EF0B2
:1010E0003550201807E136502118D8A47AEF08F0BF
:1010F0007CEF08F084EF08F04A04D8A482EF08F0EF
:1011000084EF08F061EF08F06FEC0EF020501F6ED6
:101110001FA68DEF08F08FEF08F09EEF08F04B5000
:10112000D8A495EF08F097EF08F09BEF08F0090EB0
:101130004B6EC0EF08F04B06C0EF08F01FAEA3EFF8
:1011400008F0A5EF08F0B5EF08F0090E4B18D8A489
:10115000ACEF08F0AEEF08F0B2EF08F0000E4B6E07
:10116000C0EF08F04B2AC0EF08F01FA0BAEF08F05C
:10117000BCEF08F0C0EF08F0000E4A6EE6EF08F092
:10118000010EB6EC0BF0000E286E010E40EC0DF0D7
:10119000220E286E060E296E31EC0CF0000E286E21
:1011A000000E40EC0DF04B50130D020EF324286E90
:1011B000010EF420296E31EC0CF0030E206E4B5022
:1011C0006DEC0DF0000E4A6E61EF08F028EC03F0B4
:1011D0001200266E2604D8A4F0EF08F0F2EF08F013
:1011E000FEEF08F0080E1D18D8B4F9EF08F0FBEF79
:1011F00008F007EF09F01D2A07EF09F01D50D8B4D9
:1012000004EF09F006EF09F007EF09F01D0695CF8E
:1012100027F0000E806E000E956E1D50D8A413EFBF
:1012200009F015EF09F019EF09F0000E836E7FEF5A
:1012300009F01D04D8A41FEF09F021EF09F025EFF4
:1012400009F0800E836E7FEF09F0020E1D18D8A4FE
:101250002CEF09F02EEF09F032EF09F0C00E836E8B
:101260007FEF09F0030E1D18D8A439EF09F03BEF0A
:1012700009F03FEF09F0E00E836E7FEF09F0040EF6
:101280001D18D8A446EF09F048EF09F04CEF09F01B
:10129000F00E836E7FEF09F0050E1D18D8A453EFF2
:1012A00009F055EF09F059EF09F0F80E836E7FEF62
:1012B00009F0060E1D18D8A460EF09F062EF09F0DE
:1012C00066EF09F0FC0E836E7FEF09F0070E1D1824
:1012D000D8A46DEF09F06FEF09F073EF09F0FE0E7F
:1012E000836E7FEF09F0080E1D18D8A47AEF09F07D
:1012F0007CEF09F07FEF09F083687FEF09F0010EC2
:10130000216EF40E206EDDEC0CF027C095FF12006C
:10131000000E296E27BE91EF09F08FEF09F09BEFC9
:1013200009F0271E261E251E246C000E25222622CB
:101330002722010E296E23BEA2EF09F0A0EF09F0CB
:10134000ACEF09F0231E221E211E206C000E21226C
:1013500022222322010E291A000E2A6E000E2B6E65
:10136000000E2C6E000E2D6E245025102610271016
:10137000D8B4BDEF09F0BFEF09F0F5EF09F0010EA9
:10138000286EC9EF09F0D890243625362636273640
:10139000282A27AECEEF09F0D0EF09F0C3EF09F00D
:1013A000D8902A362B362C362D362450205C2550EA
:1013B00021582650225827502358D8A0E2EF09F090
:1013C000E4EF09F0EDEF09F02450205E2550215A9A
:1013D0002650225A2750235A2A80D8902732263264
:1013E00025322432282ED0EF09F02950D8B4FBEF53
:1013F00009F0FDEF09F005EF0AF02D1E2C1E2B1E43
:101400002A6C000E2B222C222D222AC020F02BC069
:1014100021F02CC022F02DC023F01200000E256E0A
:1014200023BE17EF0AF015EF0AF01DEF0AF0226C49
:10143000231ED8B0232A010E256E21BE24EF0AF008
:1014400022EF0AF02AEF0AF0206C211ED8B0212AE0
:10145000010E251A000E276E000E266E2250231054
:10146000D8B435EF0AF037EF0AF05FEF0AF0010E5B
:10147000246E3FEF0AF0D89022362336242A23AE7A
:1014800044EF0AF046EF0AF03BEF0AF0D890263618
:1014900027362250205C23502158D8A052EF0AF062
:1014A00054EF0AF059EF0AF02250205E2350215ADF
:1014B0002680D89023322232242E46EF0AF025507F
:1014C000D8B465EF0AF067EF0AF06BEF0AF0266C0C
:1014D000271ED8B0272A26C020F027C021F01200EE
:1014E000000E2D6E29BE79EF0AF077EF0AF07FEF3C
:1014F0000AF0286C291ED8B0292A010E2D6E2BBEA9
:1015000086EF0AF084EF0AF08AEF0AF02A6C2B1EAD
:10151000D8B02B2A2A502B10D8B491EF0AF093EFB1
:101520000AF0B7EF0AF0010E2C6E9BEF0AF0D8908C
:101530002A362B362C2A2BAEA0EF0AF0A2EF0AF0A7
:1015400097EF0AF02A50285C2B502958D8A0ABEF0F
:101550000AF0ADEF0AF0B1EF0AF02A50285E2B50E6
:10156000295AD8902B322A322C2EA2EF0AF02D5075
:10157000D8B4BDEF0AF0BFEF0AF0C3EF0AF0286C51
:10158000291ED8B0292A28C028F029C029F0120025
:1015900054656D706F72616C000000000000000007
:1015A000004368656961206465204D616E696173FF
:1015B0000000452054617264652044656D61697363
:1015C000000000536F7A696E686F00000000000031
:1015D00000000000436967616E61000000000000C8
:1015E00000000000004369756D6573206465205636
:1015F0006F63650000004578747261706F6C656997
:101600000000000000000044657573206D65204CEB
:1016100069767265000000004D61726176696C68E0
:101620006100000000000000004D656469646120F5
:1016300045786174610000000000000E946E000E99
:101640002F6E000E2E6ED8902E34D96E2F34DA6E97
:10165000010ED926000EDA222EC020F02FC021F074
:10166000000E236E130E226E0DEC0EF0000E2024E1
:10167000E16E010E2120E26EDECFE6FFDDCFE5FF59
:101680002EC020F02FC021F0000E236E130E226E0C
:101690000DEC0EF0020E2024266E010E2120276E86
:1016A0002EC020F02FC021F0000E236E110E226EEE
:1016B0000DEC0EF0000E2024286E020E2120296E63
:1016C000EEEC0DF02E4A2F2A2F5009E10A0E2E5C67
:1016D000D8A06DEF0BF06FEF0BF023EF0BF01200C3
:1016E0001DEC0BF0F5EC0BF099EC0DF06AEC0EF044
:1016F0000F0EB6EC0BF0060E286E000E40EC0DF04F
:101700004A0E286E060E296E31EC0CF0040E286E7F
:10171000010E40EC0DF0430E286E060E296E31ECE2
:101720000CF0130E216E880E206EDDEC0CF0010E15
:10173000B6EC0BF0000E286E000E40EC0DF0110E12
:10174000286E060E296E31EC0CF0000E286E010E8C
:1017500040EC0DF0220E286E060E296E31EC0CF0D6
:1017600049EC08F0A5EF0BF000EF00F0276E83CFF7
:1017700026F0000E956E000E216E220E206E000ED9
:10178000236E000E226EBDEC05F027C083FF000E15
:10179000216E210E206E000E236E010E226EBDEC16
:1017A00005F0000E216E210E206E000E236E000E3D
:1017B000226EBDEC05F026C083FF020E2718D8B4B8
:1017C000E4EF0BF0E6EF0BF0EEEF0BF02704D8A4FC
:1017D000ECEF0BF0EEEF0BF0F2EF0BF043EC0EF052
:1017E000F4EF0BF05EEC0EF01200000E216E220EF4
:1017F000206E000E236E000E226E96EC04F0000E9A
:10180000216E210E206E000E236E000E226E96ECCD
:1018100004F0000E956E43EC0EF043EC0EF043EC3A
:101820000EF043EC0EF043EC0EF0380EB6EC0BF07D
:1018300043EC0EF043EC0EF0380EB6EC0BF043EC3C
:101840000EF0380EB6EC0BF0380EB6EC0BF0060EC0
:10185000B6EC0BF00C0EB6EC0BF0010EB6EC0BF088
:101860001200000E2C6E4EEF0CF02C5028242A6E25
:10187000000E29202B6E2AC0F6FF2BC0F7FFF86A56
:10188000050EF76403D00800F55005D0F6CFE9FF48
:10189000F7CFEAFFEF50C4EC0DF02C2A2C5028248F
:1018A0002A6E000E29202B6E2AC0F6FF2BC0F7FFF0
:1018B000F86A050EF76403D00800F55005D0F6CF9E
:1018C000E9FFF7CFEAFFEF500009D8A46AEF0CF068
:1018D0006CEF0CF035EF0CF01200000E256E000ED0
:1018E000246E22502310D8B478EF0CF07AEF0CF06D
:1018F000A2EF0CF0010E266E82EF0CF0D89022368B
:101900002336262A23AE87EF0CF089EF0CF07EEF0A
:101910000CF0D890243625362250205C23502158D4
:10192000D8A095EF0CF097EF0CF09CEF0CF0225044
:10193000205E2350215A2480D89023322232262E32
:1019400089EF0CF024C020F025C021F01200296E90
:10195000010ECB24206E216A000E212229C022F024
:10196000236A0DEC0EF020C02AF021C02BF02AC013
:1019700020F02BC021F0000E236E190E226E6DECAC
:101980000CF020C02AF021C02BF0FF0E2A16030E07
:101990002B162AC027F02BC028F0D89028322732E7
:1019A000D890283227322750BE6E2AC027F0030E67
:1019B00027162738F00BBD121200000E236E000E02
:1019C000226E03EF0DF0000E246E280E2464EBEF60
:1019D0000CF0EDEF0CF0EFEF0CF001EF0DF0000E5E
:1019E000256E020E2564F7EF0CF0F9EF0CF0FBEF1B
:1019F0000CF0FEEF0CF0252AF1EF0CF0242AE5EFB5
:101A00000CF0224A232A2050225C21502358D8A0CF
:101A10000CEF0DF00EEF0DF0E3EF0CF01200900E56
:101A2000F66E150EF76E000EF86E02EE00F010EE78
:101A3000AAF00900F5CFEEFFE550E150FAE1660E9D
:101A4000F66E1C0EF76E000EF86E00EE01F010EE52
:101A50001FF00900F5CFEEFFE550E150FAE101EE8D
:101A600000F0BE0EEE6AE806FDE100EE37F0150E5E
:101A7000EE6AE806FDE1000EF86E000170EF0BF073
:101A8000296E000E2A6E2950D8A449EF0DF04BEFB5
:101A90000DF04EEF0DF02850800F2A6E2904D8A4C7
:101AA00054EF0DF056EF0DF061EF0DF02A04D8B4AD
:101AB0005CEF0DF05EEF0DF061EF0DF02850C00F00
:101AC0002A6E0F0E286467EF0DF069EF0DF069EFD5
:101AD0000DF02A50B6EC0BF01200216E2050D8A465
:101AE00074EF0DF076EF0DF078EF0DF021C042F0BD
:101AF0002004D8A47EEF0DF080EF0DF082EF0DF002
:101B000021C041F0020E2018D8A489EF0DF08BEF10
:101B10000DF08DEF0DF021C040F0030E2018D8A479
:101B200094EF0DF096EF0DF098EF0DF021C03FF01F
:101B30001200000E216E020E206E000E236E000EAB
:101B4000226E96EC04F0000E216E030E206E000E45
:101B5000236E000E226E96EC04F0000E216E040E31
:101B6000206E000E236E000E226E96EC04F0000E26
:101B7000216E050E206E000E236E000E226E96EC76
:101B800004F0000E956E1200266E83CF27F0000E33
:101B9000956E000E216E220E206E000E236E010E39
:101BA000226EBDEC05F026C083FF000E216E210ED3
:101BB000206E000E236E010E226EBDEC05F0000EAD
:101BC000216E210E206E000E236E000E226EBDECE3
:101BD00005F027C083FF5EEC0EF0120028C02AF04B
:101BE00029C02BF026C02CF027C02DF02AC0D9FF29
:101BF0002BC0DAFF2A4A2B2A2CC0E1FF2DC0E2FFBE
:101C00002C4A2D2ADFCFE7FFE750D8A40AEF0EF0C9
:101C10000CEF0EF0F6EF0DF0120020502202F3CF81
:101C200024F0F4CF25F020502302F3502526215034
:101C30002202F350252624C020F025C021F01200F6
:101C4000480E206EE80E216E010E226E000E236EED
:101C50002EC024F02FC025F0266A276A88EC09F0F0
:101C60002004CB6E120046000F0078003C000A00F2
:101C7000280014001E008C000A000A070401000856
:051C8000050203011044
:101C8600000E216E5EEC0EF0212A310E21644EEF1D
:101C96000EF050EF0EF045EF0EF012009494030E86
:101CA600CA12CA840C0EBD6E000E2F6E640E2E6E06
:101CB60020EC0EF01200000E206E202A180E206472
:101CC60067EF0EF069EF0EF060EF0EF01200070EF0
:101CD60093160F0E951212003BC020F03CC021F067
:021CE6001200EA
:020000040020DA
:08000000FFFFFFFFFFFFFFFF00
:020000040030CA
:0E000000FF027100FF8380FF0FC00FE00F4072
:00000001FF
