:020000040000FA
:04000000D1EF0BF041
:10060000003F065B4F666D7D077F6F777C395E79B3
:10061000713C2D28312920282A2920202832292DF3
:100620003E004573636F6C68612061206D7573696E
:100630006361002D2831292020282A2920202832F2
:0F064000292B00506C61796572004D503300001A
:10065000010EE8EC0AF0000E3D6E000E02EC0CF00C
:100660003450130D020EF3243D6E010EF4203E6E45
:1006700063EC0BF0000E3D6E010E02EC0CF0330E3D
:100680003D6E060E3E6E63EC0BF03450130D000E03
:10069000F324D96E010EF420DA6EDF50326E3FEF94
:1006A00004F0000E386E3C0E376E32C035F0366AFC
:1006B00040EC09F035C03DF036C03EF0000E406E13
:1006C0000A0E3F6EA2EC09F03D50316E000E386EFE
:1006D0003C0E376E32C035F0366A40EC09F035C05A
:1006E00043F036C044F043C035F044C036F0000E4D
:1006F000386E0A0E376E40EC09F03550306E000E41
:10070000406E3C0E3F6E32C03DF03E6AA2EC09F0F6
:100710003DC045F03EC046F045C03DF046C03EF00D
:10072000000E406E0A0E3F6EA2EC09F03D502F6E97
:10073000000E406E3C0E3F6E32C03DF03E6AA2ECB1
:1007400009F03DC035F03EC036F0000E386E0A0E9E
:10075000376E40EC09F035502E6E000E356E30507D
:100760002FEC0CF0010E356E31502FEC0CF0020E18
:10077000356E2E502FEC0CF0030E356E2F502FECF3
:100780000CF0000E476E5BEC07F0000E366E0A0EA2
:10079000356E9FEC0BF09EEC06F011EC0DF0355031
:1007A0001F6E1FA6D6EF03F0D8EF03F0ECEF03F0B7
:1007B000E2EF03F05BEC07F09EEC06F011EC0DF0BD
:1007C00035501F6E1FB6E7EF03F0E9EF03F0DAEFE5
:1007D00003F0000E03EC08F01FAEF1EF03F0F3EFAF
:1007E00003F007EF04F0FDEF03F05BEC07F09EEC85
:1007F00006F011EC0DF035501F6E1FBE02EF04F035
:1008000004EF04F0F5EF03F0010E03EC08F01FA075
:100810000CEF04F00EEF04F02DEF04F018EF04F0ED
:100820005BEC07F09EEC06F011EC0DF035501F6EFE
:100830001FB01DEF04F01FEF04F010EF04F01E5086
:10084000D8A425EF04F027EF04F02BEF04F0010EFD
:100850001E6E2DEF04F0000E1E6E472A630E4764D5
:1008600034EF04F036EF04F0C3EF03F01E50D8A4C9
:100870003CEF04F03EEF04F03FEF04F0320632505C
:10088000D8A445EF04F047EF04F051EF03F0948251
:10089000010E366EF40E356E9FEC0BF09480120054
:1008A00036BE5EEF04F0365007E1080E355CD8B076
:1008B0005CEF04F05EEF04F088EF04F0375038107E
:1008C000D8B465EF04F067EF04F077EF04F035C0BB
:1008D00039F0010E3A6E392A70EF04F0D8903A36AA
:1008E000392E6EEF04F03A50921276EF05F035C0D3
:1008F00039F0010E3A6E392A80EF04F0D8903A367A
:10090000392E7EEF04F03A50FF0A921676EF05F08A
:1009100036BE96EF04F0365007E1100E355CD8B0C5
:1009200094EF04F096EF04F0C4EF04F03750381061
:10093000D8B49DEF04F09FEF04F0B1EF04F035C0A0
:1009400039F0F80E3926010E3A6E392AAAEF04F072
:10095000D8903A36392EA8EF04F03A50931276EF39
:1009600005F035C039F0F80E3926010E3A6E392AF5
:10097000BCEF04F0D8903A36392EBAEF04F03A5072
:10098000FF0A931676EF05F036BED2EF04F036502C
:1009900007E1180E355CD8B0D0EF04F0D2EF04F0C8
:1009A00000EF05F037503810D8B4D9EF04F0DBEF82
:1009B00004F0EDEF04F035C039F0F00E3926010EE9
:1009C0003A6E392AE6EF04F0D8903A36392EE4EF41
:1009D00004F03A50941276EF05F035C039F0F00E7D
:1009E0003926010E3A6E392AF8EF04F0D8903A36DB
:1009F000392EF6EF04F03A50FF0A941676EF05F020
:100A000036BE0EEF05F0365007E1200E355CD8B04B
:100A10000CEF05F00EEF05F03CEF05F03750381005
:100A2000D8B415EF05F017EF05F029EF05F035C044
:100A300039F0E80E3926010E3A6E392A22EF05F018
:100A4000D8903A36392E20EF05F03A50951276EFCD
:100A500005F035C039F0E80E3926010E3A6E392A14
:100A600034EF05F0D8903A36392E32EF05F03A508F
:100A7000FF0A951676EF05F036BE4AEF05F03650C0
:100A800007E1280E355CD8B048EF05F04AEF05F0D5
:100A900076EF05F037503810D8B451EF05F053EF2A
:100AA00005F065EF05F035C039F0E00E3926010E8E
:100AB0003A6E392A5EEF05F0D8903A36392E5CEF5F
:100AC00005F03A50961276EF05F035C039F0E00E99
:100AD0003926010E3A6E392A70EF05F0D8903A3671
:100AE000392E6EEF05F03A50FF0A9616120036BE08
:100AF00085EF05F0365007E1080E355CD8B083EF7E
:100B000005F085EF05F0AFEF05F037503810D8B499
:100B10008CEF05F08EEF05F09EEF05F035C039F053
:100B2000010E3A6E392A97EF05F0D8903A36392EF1
:100B300095EF05F03A5080129DEF06F035C039F080
:100B4000010E3A6E392AA7EF05F0D8903A36392EC1
:100B5000A5EF05F03A50FF0A80169DEF06F036BE6D
:100B6000BDEF05F0365007E1100E355CD8B0BBEF95
:100B700005F0BDEF05F0EBEF05F0F80E3526FF0EA2
:100B8000362237503810D8B4C8EF05F0CAEF05F058
:100B9000DAEF05F035C039F0010E3A6E392AD3EF9D
:100BA00005F0D8903A36392ED1EF05F03A5081123F
:100BB0009DEF06F035C039F0010E3A6E392AE3EFA9
:100BC00005F0D8903A36392EE1EF05F03A50FF0A99
:100BD00081169DEF06F036BEF9EF05F0365007E1BD
:100BE000180E355CD8B0F7EF05F0F9EF05F027EFF8
:100BF00006F0F00E3526FF0E362237503810D8B4E6
:100C000004EF06F006EF06F016EF06F035C039F0F7
:100C1000010E3A6E392A0FEF06F0D8903A36392E87
:100C20000DEF06F03A5082129DEF06F035C039F014
:100C3000010E3A6E392A1FEF06F0D8903A36392E57
:100C40001DEF06F03A50FF0A82169DEF06F036BE01
:100C500035EF06F0365007E1200E355CD8B033EFA3
:100C600006F035EF06F063EF06F0E80E3526FF0ECE
:100C7000362237503810D8B440EF06F042EF06F075
:100C800052EF06F035C039F0010E3A6E392A4BEFBB
:100C900006F0D8903A36392E49EF06F03A508312D2
:100CA0009DEF06F035C039F0010E3A6E392A5BEF40
:100CB00006F0D8903A36392E59EF06F03A50FF0A2E
:100CC00083169DEF06F036BE71EF06F0365007E151
:100CD000280E355CD8B06FEF06F071EF06F09DEF8F
:100CE00006F0E00E3526FF0E362237503810D8B405
:100CF0007CEF06F07EEF06F08EEF06F035C039F09F
:100D0000010E3A6E392A87EF06F0D8903A36392E1E
:100D100085EF06F03A5084129DEF06F035C039F0A9
:100D2000010E3A6E392A97EF06F0D8903A36392EEE
:100D300095EF06F03A50FF0A8416120083CF3AF07E
:100D40000F0E9512000E3E6EF80E93163EC035F053
:100D5000010E366E352AAFEF06F0D8903636352EB6
:100D6000ADEF06F036509312070E81123EC035F0FB
:100D7000010E366E352ABFEF06F0D8903636352E86
:100D8000BDEF06F03650FF0A8116000E3C6E000ED5
:100D90003B6E3B4A3C2A3CBED7EF06F03C5009E193
:100DA0000A0E3B5CD8A0D7EF06F0D9EF06F0C9EFEA
:100DB00006F0000E3D6E3DC035F0010E366E352A50
:100DC000E4EF06F0D8903636352EE2EF06F03650D6
:100DD00083140009D8A4EFEF06F0F1EF06F009EF55
:100DE00007F03E50040DF3503D24356E010E366E73
:100DF000000E376E352A00EF07F0D89036363736BA
:100E0000352EFDEF06F0365022123750231223EF15
:100E100007F03E50040DF3503D24356E010E366E42
:100E2000000E376E352A18EF07F0D8903636373671
:100E3000352E15EF07F0361C386E371C396E3850DA
:100E40002216395023163D2A030E3D642AEF07F07F
:100E50002CEF07F0DBEF06F03E2A020E3E6433EF84
:100E600007F035EF07F0A4EF06F02250201807E155
:100E700023502118D8A43FEF07F041EF07F044EFCB
:100E800007F026064AEF07F00A0E266E22C020F071
:100E900023C021F02650D8A450EF07F052EF07F0FE
:100EA00056EF07F020C024F021C025F03AC083FFA0
:100EB000000E956E1200000E956E000E366E020E3C
:100EC000356E000E386E000E376E77EC05F0000EB2
:100ED000366E030E356E000E386E000E376E77ECF0
:100EE00005F0000E366E040E356E000E386E000EE4
:100EF000376E77EC05F0000E366E050E356E000E7F
:100F0000386E000E376E77EC05F0000E836EE5EF5D
:100F100007F0010E2B24F66EF76A060EF722080082
:100F2000F5CF83FF000E366E020E356E000E386E62
:100F3000010E376E77EC05F0010E2C6E02EF08F013
:100F4000010E2A24F66EF76A060EF7220800F5CF86
:100F500083FF000E366E030E356E000E386E010EE6
:100F6000376E77EC05F0020E2C6E02EF08F0010EE2
:100F70002924F66EF76A060EF7220800F5CF83FFE4
:100F8000000E366E040E356E000E386E010E376E92
:100F900077EC05F0030E2C6E02EF08F0010E28240A
:100FA000F66EF76A060EF7220800F5CF83FF000EF3
:100FB000366E050E356E000E386E010E376E77EC0C
:100FC00005F0000E2C6E02EF08F02C503B6E3C6AD0
:100FD0003C50000AD8B4EFEF07F0E1EF07F03B50C8
:100FE000000AD8B489EF07F0010AD8B4A0EF07F0DF
:100FF000030AD8B4B7EF07F0010AD8B4CEEF07F070
:10100000E1EF07F012003B6E3B04D8A40AEF08F0B2
:101010000CEF08F018EF08F0080E1D18D8B413EF05
:1010200008F015EF08F021EF08F01D2A21EF08F075
:101030001D50D8B41EEF08F020EF08F021EF08F0A3
:101040001D0695CF3CF0000E806E000E956E1D5073
:10105000D8A42DEF08F02FEF08F033EF08F0000EC2
:10106000836E99EF08F01D04D8A439EF08F03BEF28
:1010700008F03FEF08F0800E836E99EF08F0020E43
:101080001D18D8A446EF08F048EF08F04CEF08F020
:10109000C00E836E99EF08F0030E1D18D8A453EF0D
:1010A00008F055EF08F059EF08F0E00E836E99EF65
:1010B00008F0040E1D18D8A460EF08F062EF08F0E5
:1010C00066EF08F0F00E836E99EF08F0050E1D181C
:1010D000D8A46DEF08F06FEF08F073EF08F0F80E8A
:1010E000836E99EF08F0060E1D18D8A47AEF08F069
:1010F0007CEF08F080EF08F0FC0E836E99EF08F0AB
:10110000070E1D18D8A487EF08F089EF08F08DEFBF
:1011100008F0FE0E836E99EF08F0080E1D18D8A493
:1011200094EF08F096EF08F099EF08F0836899EFD4
:1011300008F0010E366EF40E356E9FEC0BF03CC0DD
:1011400095FF12009EEC06F011EC0DF035501F6E6D
:101150001FB6ADEF08F0AFEF08F0B6EF08F01FAE26
:10116000B4EF08F0B6EF08F03FEF09F0010E336E70
:101170005BEC07F09EEC06F0000E366E0A0E356E44
:101180009FEC0BF01F50486E496A11EC0DF048506F
:10119000351807E149503618D8A4D1EF08F0D3EF3D
:1011A00008F0DBEF08F03304D8A4D9EF08F0DBEF48
:1011B00008F0B8EF08F011EC0DF035501F6E1FA6C7
:1011C000E4EF08F0E6EF08F0F5EF08F03450D8A4AB
:1011D000ECEF08F0EEEF08F0F2EF08F0090E346ED5
:1011E00017EF09F0340617EF09F01FAEFAEF08F019
:1011F000FCEF08F00CEF09F0090E3418D8A403EF47
:1012000009F005EF09F009EF09F0000E346E17EF51
:1012100009F0342A17EF09F01FA011EF09F013EFBE
:1012200009F017EF09F0000E336E3DEF09F0010EE3
:10123000E8EC0AF0000E3D6E010E02EC0CF0110E0F
:101240003D6E060E3E6E63EC0BF0000E3D6E000E22
:1012500002EC0CF03450130D020EF3243D6E010E1F
:10126000F4203E6E63EC0BF0030E356E34502FEC21
:101270000CF0000E336EB8EF08F028EC03F012000B
:10128000000E3A6E38BE49EF09F047EF09F04FEF14
:1012900009F0376C381ED8B0382A010E3A6E36BEC7
:1012A00056EF09F054EF09F05CEF09F0356C361E8B
:1012B000D8B0362A010E3A1A000E3C6E000E3B6E74
:1012C00037503810D8B467EF09F069EF09F091EFA3
:1012D00009F0010E396E71EF09F0D89037363836C3
:1012E000392A38AE76EF09F078EF09F06DEF09F0A2
:1012F000D8903B363C363750355C38503658D8A0FD
:1013000084EF09F086EF09F08BEF09F03750355E76
:101310003850365A3B80D89038323732392E78EFF1
:1013200009F03A50D8B497EF09F099EF09F09DEF22
:1013300009F03B6C3C1ED8B03C2A3BC035F03CC0A9
:1013400036F01200000E426E3EBEABEF09F0A9EF80
:1013500009F0B1EF09F03D6C3E1ED8B03E2A010EF7
:10136000426E40BEB8EF09F0B6EF09F0BCEF09F0ED
:101370003F6C401ED8B0402A3F504010D8B4C3EF55
:1013800009F0C5EF09F0E9EF09F0010E416ECDEF6C
:1013900009F0D8903F364036412A40AED2EF09F0EE
:1013A000D4EF09F0C9EF09F03F503D5C40503E5882
:1013B000D8A0DDEF09F0DFEF09F0E3EF09F03F50CF
:1013C0003D5E40503E5AD89040323F32412ED4EFDD
:1013D00009F04250D8B4EFEF09F0F1EF09F0F5EF62
:1013E00009F03D6C3E1ED8B03E2A3DC03DF03EC0E7
:1013F0003EF01200457374616D6F73205669766F0D
:1014000073000000004368656961206465204D61D8
:101410006E69617300004520546172646520446503
:101420006D616973000000536F7A696E686F000028
:101430000000000000000000436967616E61000069
:101440000000000000000000004369756D65732016
:10145000646520566F6365000000457874726170A2
:101460006F6C656900000000000000446575732022
:101470006D65204C69767265000000004D617261F7
:1014800076696C686100000000000000004D656432
:101490006964612045786174610000000000000EFD
:1014A000946E000E446E000E436ED8904334D96E95
:1014B0004434DA6E010ED926000EDA2243C035F02C
:1014C00044C036F0000E386E130E376ECFEC0CF0C1
:1014D000000E3524E16E010E3620E26EDECFE6FF0F
:1014E000DDCFE5FF43C035F044C036F0000E386E66
:1014F000130E376ECFEC0CF0020E35243B6E010E4E
:1015000036203C6E43C035F044C036F0000E386ED5
:10151000110E376ECFEC0CF0000E35243D6E020E2E
:1015200036203E6EB0EC0CF0434A442A445009E1A8
:101530000A0E435CD8A09FEF0AF0A1EF0AF055EF26
:101540000AF012004FEC0AF027EC0BF05BEC0CF009
:101550000CEC0DF00F0EE8EC0AF0060E3D6E000EDE
:1015600002EC0CF04A0E3D6E060E3E6E63EC0BF084
:10157000040E3D6E010E02EC0CF0430E3D6E060EA5
:101580003E6E63EC0BF0070E366ED00E356E9FECA0
:101590000BF0010EE8EC0AF0000E3D6E000E02ECBE
:1015A0000CF0220E3D6E060E3E6E63EC0BF0000E4C
:1015B0003D6E010E02EC0CF0110E3D6E060E3E6EFD
:1015C00063EC0BF0A2EC08F0D7EF0AF000EF00F0AC
:1015D0003C6E83CF3BF0000E956E000E366E220EF1
:1015E000356E000E386E000E376E77EC05F03CC09D
:1015F00083FF000E366E210E356E000E386E010E22
:10160000376E77EC05F0000E366E210E356E000E4B
:10161000386E000E376E77EC05F03BC083FF020E8C
:101620003C18D8B416EF0BF018EF0BF020EF0BF0CE
:101630003C04D8A41EEF0BF020EF0BF024EF0BF0CE
:10164000F2EC0CF026EF0BF000EC0DF01200000EA7
:10165000366E220E356E000E386E000E376E50EC70
:1016600004F0000E366E210E356E000E386E000E40
:10167000376E50EC04F0000E956EF2EC0CF0F2ECCC
:101680000CF0F2EC0CF0F2EC0CF0F2EC0CF0380E8A
:10169000E8EC0AF0F2EC0CF0F2EC0CF0380EE8ECAE
:1016A0000AF0F2EC0CF0380EE8EC0AF0380EE8EC38
:1016B0000AF0060EE8EC0AF00C0EE8EC0AF0010E57
:1016C000E8EC0AF01200000E416E80EF0BF0415082
:1016D0003D243F6E000E3E20406E3FC0F6FF40C0EE
:1016E000F7FFF86A050EF76403D00800F55005D03F
:1016F000F6CFE9FFF7CFEAFFEF5086EC0CF0412A76
:1017000041503D243F6E000E3E20406E3FC0F6FF2C
:1017100040C0F7FFF86A050EF76403D00800F550E3
:1017200005D0F6CFE9FFF7CFEAFFEF500009D8A4C4
:101730009CEF0BF09EEF0BF067EF0BF01200000E2A
:10174000386E000E376EC5EF0BF0000E396E280EA6
:101750003964ADEF0BF0AFEF0BF0B1EF0BF0C3EF6F
:101760000BF0000E3A6E020E3A64B9EF0BF0BBEFCD
:101770000BF0BDEF0BF0C0EF0BF03A2AB3EF0BF01C
:10178000392AA7EF0BF0374A382A3550375C3650E4
:101790003858D8A0CEEF0BF0D0EF0BF0A5EF0BF040
:1017A0001200F40EF66E130EF76E000EF86E02EED7
:1017B00000F010EEAAF00900F5CFEEFFE550E15081
:1017C000FAE1C40EF66E190EF76E000EF86E00EE1A
:1017D00001F010EE1FF00900F5CFEEFFE550E150EB
:1017E000FAE101EE00F0BE0EEE6AE806FDE100EE61
:1017F00020F0150EEE6AE806FDE1000EF86E00011D
:10180000A2EF0AF03E6E000E3F6E3E50D8A40BEFE2
:101810000CF00DEF0CF010EF0CF03D50800F3F6E10
:101820003E04D8A416EF0CF018EF0CF023EF0CF0E8
:101830003F04D8B41EEF0CF020EF0CF023EF0CF0B7
:101840003D50C00F3F6E0F0E3D6429EF0CF02BEFA3
:101850000CF02BEF0CF03F50E8EC0AF01200366E63
:101860003550D8A436EF0CF038EF0CF03AEF0CF00E
:1018700036C02BF03504D8A440EF0CF042EF0CF04A
:1018800044EF0CF036C02AF0020E3518D8A44BEF06
:101890000CF04DEF0CF04FEF0CF036C029F0030EBA
:1018A0003518D8A456EF0CF058EF0CF05AEF0CF0A6
:1018B00036C028F01200000E366E020E356E000E95
:1018C000386E000E376E50EC04F0000E366E030ECC
:1018D000356E000E386E000E376E50EC04F0000EC0
:1018E000366E040E356E000E386E000E376E50ECFC
:1018F00004F0000E366E050E356E000E386E000ECA
:10190000376E50EC04F0000E956E12003B6E83CFE4
:101910003CF0000E956E000E366E220E356E000EF7
:10192000386E010E376E77EC05F03BC083FF000E7A
:10193000366E210E356E000E386E010E376E77EC66
:1019400005F0000E366E210E356E000E386E000E5C
:10195000376E77EC05F03CC083FF00EC0DF0120011
:101960003DC03FF03EC040F03BC041F03CC042F0C3
:101970003FC0D9FF40C0DAFF3F4A402A41C0E1FFE3
:1019800042C0E2FF414A422ADFCFE7FFE750D8A436
:10199000CCEF0CF0CEEF0CF0B8EF0CF0120035509D
:1019A0003702F3CF39F0F4CF3AF035503802F35024
:1019B0003A2636503702F3503A2639C035F03AC04D
:1019C00036F01200B400B400B400B400B400B400A7
:1019D000B400B400B400B4000A0704010008050212
:0319E000030110F0
:1019E400000E366E00EC0DF0362A310E3664FDEF33
:1019F4000CF0FFEF0CF0F4EF0CF01200000E356E5B
:101A0400352A180E356409EF0DF00BEF0DF002EFD7
:101A14000DF01200070E93160F0E9512120024C03B
:081A240035F025C036F0120078
:020000040020DA
:08000000FFFFFFFFFFFFFFFF00
:020000040030CA
:0E000000FF027100FF8380FF0FC00FE00F4072
:00000001FF
